{
  "contractName": "Land",
  "abi": [
    {
      "inputs": [],
      "stateMutability": "nonpayable",
      "type": "constructor"
    },
    {
      "inputs": [
        {
          "internalType": "uint256",
          "name": "",
          "type": "uint256"
        }
      ],
      "name": "LandRequestMapping",
      "outputs": [
        {
          "internalType": "uint256",
          "name": "reqId",
          "type": "uint256"
        },
        {
          "internalType": "address payable",
          "name": "sellerId",
          "type": "address"
        },
        {
          "internalType": "address payable",
          "name": "buyerId",
          "type": "address"
        },
        {
          "internalType": "uint256",
          "name": "landId",
          "type": "uint256"
        },
        {
          "internalType": "enum Land.reqStatus",
          "name": "requestStatus",
          "type": "uint8"
        },
        {
          "internalType": "bool",
          "name": "isPaymentDone",
          "type": "bool"
        }
      ],
      "stateMutability": "view",
      "type": "function",
      "constant": true
    },
    {
      "inputs": [
        {
          "internalType": "address",
          "name": "",
          "type": "address"
        }
      ],
      "name": "UserMapping",
      "outputs": [
        {
          "internalType": "address",
          "name": "id",
          "type": "address"
        },
        {
          "internalType": "string",
          "name": "name",
          "type": "string"
        },
        {
          "internalType": "uint256",
          "name": "age",
          "type": "uint256"
        },
        {
          "internalType": "string",
          "name": "city",
          "type": "string"
        },
        {
          "internalType": "string",
          "name": "aadharNumber",
          "type": "string"
        },
        {
          "internalType": "string",
          "name": "panNumber",
          "type": "string"
        },
        {
          "internalType": "string",
          "name": "document",
          "type": "string"
        },
        {
          "internalType": "string",
          "name": "email",
          "type": "string"
        },
        {
          "internalType": "bool",
          "name": "isUserVerified",
          "type": "bool"
        }
      ],
      "stateMutability": "view",
      "type": "function",
      "constant": true
    },
    {
      "inputs": [],
      "name": "documentId",
      "outputs": [
        {
          "internalType": "uint256",
          "name": "",
          "type": "uint256"
        }
      ],
      "stateMutability": "view",
      "type": "function",
      "constant": true
    },
    {
      "inputs": [
        {
          "internalType": "uint256",
          "name": "",
          "type": "uint256"
        }
      ],
      "name": "lands",
      "outputs": [
        {
          "internalType": "uint256",
          "name": "id",
          "type": "uint256"
        },
        {
          "internalType": "uint256",
          "name": "area",
          "type": "uint256"
        },
        {
          "internalType": "string",
          "name": "landAddress",
          "type": "string"
        },
        {
          "internalType": "uint256",
          "name": "landPrice",
          "type": "uint256"
        },
        {
          "internalType": "string",
          "name": "allLatitudeLongitude",
          "type": "string"
        },
        {
          "internalType": "uint256",
          "name": "propertyPID",
          "type": "uint256"
        },
        {
          "internalType": "string",
          "name": "physicalSurveyNumber",
          "type": "string"
        },
        {
          "internalType": "string",
          "name": "document",
          "type": "string"
        },
        {
          "internalType": "bool",
          "name": "isforSell",
          "type": "bool"
        },
        {
          "internalType": "address payable",
          "name": "ownerAddress",
          "type": "address"
        },
        {
          "internalType": "bool",
          "name": "isLandVerified",
          "type": "bool"
        }
      ],
      "stateMutability": "view",
      "type": "function",
      "constant": true
    },
    {
      "inputs": [],
      "name": "landsCount",
      "outputs": [
        {
          "internalType": "uint256",
          "name": "",
          "type": "uint256"
        }
      ],
      "stateMutability": "view",
      "type": "function",
      "constant": true
    },
    {
      "inputs": [],
      "name": "userCount",
      "outputs": [
        {
          "internalType": "uint256",
          "name": "",
          "type": "uint256"
        }
      ],
      "stateMutability": "view",
      "type": "function",
      "constant": true
    },
    {
      "inputs": [
        {
          "internalType": "address",
          "name": "_addr",
          "type": "address"
        }
      ],
      "name": "isContractOwner",
      "outputs": [
        {
          "internalType": "bool",
          "name": "",
          "type": "bool"
        }
      ],
      "stateMutability": "view",
      "type": "function",
      "constant": true
    },
    {
      "inputs": [
        {
          "internalType": "address",
          "name": "_addr",
          "type": "address"
        },
        {
          "internalType": "string",
          "name": "_name",
          "type": "string"
        },
        {
          "internalType": "uint256",
          "name": "_age",
          "type": "uint256"
        },
        {
          "internalType": "string",
          "name": "_designation",
          "type": "string"
        },
        {
          "internalType": "string",
          "name": "_city",
          "type": "string"
        }
      ],
      "name": "addLandInspector",
      "outputs": [
        {
          "internalType": "bool",
          "name": "",
          "type": "bool"
        }
      ],
      "stateMutability": "nonpayable",
      "type": "function"
    },
    {
      "inputs": [
        {
          "internalType": "address",
          "name": "_id",
          "type": "address"
        }
      ],
      "name": "isLandInspector",
      "outputs": [
        {
          "internalType": "bool",
          "name": "",
          "type": "bool"
        }
      ],
      "stateMutability": "view",
      "type": "function",
      "constant": true
    },
    {
      "inputs": [
        {
          "internalType": "address",
          "name": "_addr",
          "type": "address"
        }
      ],
      "name": "isUserRegistered",
      "outputs": [
        {
          "internalType": "bool",
          "name": "",
          "type": "bool"
        }
      ],
      "stateMutability": "view",
      "type": "function",
      "constant": true
    },
    {
      "inputs": [
        {
          "internalType": "string",
          "name": "_name",
          "type": "string"
        },
        {
          "internalType": "uint256",
          "name": "_age",
          "type": "uint256"
        },
        {
          "internalType": "string",
          "name": "_city",
          "type": "string"
        },
        {
          "internalType": "string",
          "name": "_aadharNumber",
          "type": "string"
        },
        {
          "internalType": "string",
          "name": "_panNumber",
          "type": "string"
        },
        {
          "internalType": "string",
          "name": "_document",
          "type": "string"
        },
        {
          "internalType": "string",
          "name": "_email",
          "type": "string"
        }
      ],
      "name": "registerUser",
      "outputs": [],
      "stateMutability": "nonpayable",
      "type": "function"
    },
    {
      "inputs": [
        {
          "internalType": "address",
          "name": "_userId",
          "type": "address"
        }
      ],
      "name": "verifyUser",
      "outputs": [],
      "stateMutability": "nonpayable",
      "type": "function"
    },
    {
      "inputs": [
        {
          "internalType": "address",
          "name": "id",
          "type": "address"
        }
      ],
      "name": "isUserVerified",
      "outputs": [
        {
          "internalType": "bool",
          "name": "",
          "type": "bool"
        }
      ],
      "stateMutability": "view",
      "type": "function",
      "constant": true
    },
    {
      "inputs": [],
      "name": "ReturnAllUserList",
      "outputs": [
        {
          "internalType": "address[]",
          "name": "",
          "type": "address[]"
        }
      ],
      "stateMutability": "view",
      "type": "function",
      "constant": true
    },
    {
      "inputs": [
        {
          "internalType": "uint256",
          "name": "_area",
          "type": "uint256"
        },
        {
          "internalType": "string",
          "name": "_address",
          "type": "string"
        },
        {
          "internalType": "uint256",
          "name": "landPrice",
          "type": "uint256"
        },
        {
          "internalType": "string",
          "name": "_allLatiLongi",
          "type": "string"
        },
        {
          "internalType": "uint256",
          "name": "_propertyPID",
          "type": "uint256"
        },
        {
          "internalType": "string",
          "name": "_surveyNum",
          "type": "string"
        },
        {
          "internalType": "string",
          "name": "_document",
          "type": "string"
        }
      ],
      "name": "addLand",
      "outputs": [],
      "stateMutability": "nonpayable",
      "type": "function"
    },
    {
      "inputs": [],
      "name": "ReturnAllLandList",
      "outputs": [
        {
          "internalType": "uint256[]",
          "name": "",
          "type": "uint256[]"
        }
      ],
      "stateMutability": "view",
      "type": "function",
      "constant": true
    },
    {
      "inputs": [
        {
          "internalType": "uint256",
          "name": "_id",
          "type": "uint256"
        }
      ],
      "name": "verifyLand",
      "outputs": [],
      "stateMutability": "nonpayable",
      "type": "function"
    },
    {
      "inputs": [
        {
          "internalType": "uint256",
          "name": "id",
          "type": "uint256"
        }
      ],
      "name": "isLandVerified",
      "outputs": [
        {
          "internalType": "bool",
          "name": "",
          "type": "bool"
        }
      ],
      "stateMutability": "view",
      "type": "function",
      "constant": true
    },
    {
      "inputs": [
        {
          "internalType": "address",
          "name": "id",
          "type": "address"
        }
      ],
      "name": "myAllLands",
      "outputs": [
        {
          "internalType": "uint256[]",
          "name": "",
          "type": "uint256[]"
        }
      ],
      "stateMutability": "view",
      "type": "function",
      "constant": true
    },
    {
      "inputs": [
        {
          "internalType": "uint256",
          "name": "id",
          "type": "uint256"
        }
      ],
      "name": "makeItforSell",
      "outputs": [],
      "stateMutability": "nonpayable",
      "type": "function"
    },
    {
      "inputs": [
        {
          "internalType": "uint256",
          "name": "_landId",
          "type": "uint256"
        }
      ],
      "name": "requestforBuy",
      "outputs": [],
      "stateMutability": "nonpayable",
      "type": "function"
    },
    {
      "inputs": [],
      "name": "myReceivedLandRequests",
      "outputs": [
        {
          "internalType": "uint256[]",
          "name": "",
          "type": "uint256[]"
        }
      ],
      "stateMutability": "view",
      "type": "function",
      "constant": true
    },
    {
      "inputs": [],
      "name": "mySentLandRequests",
      "outputs": [
        {
          "internalType": "uint256[]",
          "name": "",
          "type": "uint256[]"
        }
      ],
      "stateMutability": "view",
      "type": "function",
      "constant": true
    },
    {
      "inputs": [
        {
          "internalType": "uint256",
          "name": "_requestId",
          "type": "uint256"
        }
      ],
      "name": "acceptRequest",
      "outputs": [],
      "stateMutability": "nonpayable",
      "type": "function"
    },
    {
      "inputs": [
        {
          "internalType": "uint256",
          "name": "_requestId",
          "type": "uint256"
        }
      ],
      "name": "rejectRequest",
      "outputs": [],
      "stateMutability": "nonpayable",
      "type": "function"
    },
    {
      "inputs": [
        {
          "internalType": "uint256",
          "name": "id",
          "type": "uint256"
        }
      ],
      "name": "requesteStatus",
      "outputs": [
        {
          "internalType": "bool",
          "name": "",
          "type": "bool"
        }
      ],
      "stateMutability": "view",
      "type": "function",
      "constant": true
    },
    {
      "inputs": [
        {
          "internalType": "uint256",
          "name": "id",
          "type": "uint256"
        }
      ],
      "name": "landPrice",
      "outputs": [
        {
          "internalType": "uint256",
          "name": "",
          "type": "uint256"
        }
      ],
      "stateMutability": "view",
      "type": "function",
      "constant": true
    },
    {
      "inputs": [
        {
          "internalType": "uint256",
          "name": "_requestId",
          "type": "uint256"
        }
      ],
      "name": "makePayment",
      "outputs": [],
      "stateMutability": "payable",
      "type": "function",
      "payable": true
    },
    {
      "inputs": [],
      "name": "returnPaymentDoneList",
      "outputs": [
        {
          "internalType": "uint256[]",
          "name": "",
          "type": "uint256[]"
        }
      ],
      "stateMutability": "view",
      "type": "function",
      "constant": true
    },
    {
      "inputs": [
        {
          "internalType": "uint256",
          "name": "_requestId",
          "type": "uint256"
        },
        {
          "internalType": "string",
          "name": "documentUrl",
          "type": "string"
        }
      ],
      "name": "transferOwnership",
      "outputs": [
        {
          "internalType": "bool",
          "name": "",
          "type": "bool"
        }
      ],
      "stateMutability": "nonpayable",
      "type": "function"
    },
    {
      "inputs": [
        {
          "internalType": "address payable",
          "name": "_reveiver",
          "type": "address"
        }
      ],
      "name": "makePaymentTestFun",
      "outputs": [],
      "stateMutability": "payable",
      "type": "function",
      "payable": true
    }
  ],
  "bytecode": "0x608060405234801561001057600080fd5b50336000806101000a81548173ffffffffffffffffffffffffffffffffffffffff021916908373ffffffffffffffffffffffffffffffffffffffff160217905550613c28806100606000396000f3fe6080604052600436106101d85760003560e01c8063ace417e011610102578063d72ca9ec11610095578063e261f1e511610064578063e261f1e5146111fb578063edfbe2471461143e578063f9c43bdf14611803578063fa0245491461183e576101d8565b8063d72ca9ec1461108d578063d8513de4146110dc578063de1176881461112d578063e165af8714611194576101d8565b8063ccfdc19b116100d1578063ccfdc19b146109ee578063d196ebf214610c99578063d3b368c014610d3f578063d61ff68c14610d7a576101d8565b8063ace417e01461066b578063b10a30ed146106d2578063c26e11eb1461077d578063c6dcdc37146107b8576101d8565b80634d8131201161017a57806378f7c83f1161014957806378f7c83f14610524578063995a8d961461054f5780639c32e3b414610593578063a846fc8f146105ff576101d8565b80634d813120146103e85780635114cb5214610439578063553a998d146104675780636cbf6cf8146104d3576101d8565b806323393d77116101b657806323393d771461029a5780632d7788db14610306578063499701b2146103415780634ba1f098146103ad576101d8565b806307973ccf146101dd578063163f7522146102085780631c9afd0f1461026f575b600080fd5b3480156101e957600080fd5b506101f2611926565b6040518082815260200191505060405180910390f35b34801561021457600080fd5b506102576004803603602081101561022b57600080fd5b81019080803573ffffffffffffffffffffffffffffffffffffffff16906020019092919050505061192c565b60405180821515815260200191505060405180910390f35b34801561027b57600080fd5b50610284611993565b6040518082815260200191505060405180910390f35b3480156102a657600080fd5b506102af611999565b6040518080602001828103825283818151815260200191508051906020019060200280838360005b838110156102f25780820151818401526020810190506102d7565b505050509050019250505060405180910390f35b34801561031257600080fd5b5061033f6004803603602081101561032957600080fd5b8101908080359060200190929190505050611a03565b005b34801561034d57600080fd5b50610356611aac565b6040518080602001828103825283818151815260200191508051906020019060200280838360005b8381101561039957808201518184015260208101905061037e565b505050509050019250505060405180910390f35b3480156103b957600080fd5b506103e6600480360360208110156103d057600080fd5b8101908080359060200190929190505050611b41565b005b3480156103f457600080fd5b506104376004803603602081101561040b57600080fd5b81019080803573ffffffffffffffffffffffffffffffffffffffff169060200190929190505050611bea565b005b6104656004803603602081101561044f57600080fd5b8101908080359060200190929190505050611c5a565b005b34801561047357600080fd5b5061047c611e45565b6040518080602001828103825283818151815260200191508051906020019060200280838360005b838110156104bf5780820151818401526020810190506104a4565b505050509050019250505060405180910390f35b3480156104df57600080fd5b5061050c600480360360208110156104f657600080fd5b8101908080359060200190929190505050611ee5565b60405180821515815260200191505060405180910390f35b34801561053057600080fd5b50610539611f12565b6040518082815260200191505060405180910390f35b6105916004803603602081101561056557600080fd5b81019080803573ffffffffffffffffffffffffffffffffffffffff169060200190929190505050611f18565b005b34801561059f57600080fd5b506105a8611f62565b6040518080602001828103825283818151815260200191508051906020019060200280838360005b838110156105eb5780820151818401526020810190506105d0565b505050509050019250505060405180910390f35b34801561060b57600080fd5b50610614611ff7565b6040518080602001828103825283818151815260200191508051906020019060200280838360005b8381101561065757808201518184015260208101905061063c565b505050509050019250505060405180910390f35b34801561067757600080fd5b506106ba6004803603602081101561068e57600080fd5b81019080803573ffffffffffffffffffffffffffffffffffffffff169060200190929190505050612061565b60405180821515815260200191505060405180910390f35b3480156106de57600080fd5b5061070b600480360360208110156106f557600080fd5b81019080803590602001909291905050506120ba565b604051808781526020018673ffffffffffffffffffffffffffffffffffffffff1681526020018573ffffffffffffffffffffffffffffffffffffffff16815260200184815260200183600481111561075f57fe5b81526020018215158152602001965050505050505060405180910390f35b34801561078957600080fd5b506107b6600480360360208110156107a057600080fd5b8101908080359060200190929190505050612150565b005b3480156107c457600080fd5b506109d6600480360360a08110156107db57600080fd5b81019080803573ffffffffffffffffffffffffffffffffffffffff1690602001909291908035906020019064010000000081111561081857600080fd5b82018360208201111561082a57600080fd5b8035906020019184600183028401116401000000008311171561084c57600080fd5b91908080601f016020809104026020016040519081016040528093929190818152602001838380828437600081840152601f19601f82011690508083019250505050505050919291929080359060200190929190803590602001906401000000008111156108b957600080fd5b8201836020820111156108cb57600080fd5b803590602001918460018302840111640100000000831117156108ed57600080fd5b91908080601f016020809104026020016040519081016040528093929190818152602001838380828437600081840152601f19601f8201169050808301925050505050505091929192908035906020019064010000000081111561095057600080fd5b82018360208201111561096257600080fd5b8035906020019184600183028401116401000000008311171561098457600080fd5b91908080601f016020809104026020016040519081016040528093929190818152602001838380828437600081840152601f19601f8201169050808301925050505050505091929192905050506121f0565b60405180821515815260200191505060405180910390f35b3480156109fa57600080fd5b50610c97600480360360e0811015610a1157600080fd5b810190808035906020019092919080359060200190640100000000811115610a3857600080fd5b820183602082011115610a4a57600080fd5b80359060200191846001830284011164010000000083111715610a6c57600080fd5b91908080601f016020809104026020016040519081016040528093929190818152602001838380828437600081840152601f19601f8201169050808301925050505050505091929192908035906020019092919080359060200190640100000000811115610ad957600080fd5b820183602082011115610aeb57600080fd5b80359060200191846001830284011164010000000083111715610b0d57600080fd5b91908080601f016020809104026020016040519081016040528093929190818152602001838380828437600081840152601f19601f8201169050808301925050505050505091929192908035906020019092919080359060200190640100000000811115610b7a57600080fd5b820183602082011115610b8c57600080fd5b80359060200191846001830284011164010000000083111715610bae57600080fd5b91908080601f016020809104026020016040519081016040528093929190818152602001838380828437600081840152601f19601f82011690508083019250505050505050919291929080359060200190640100000000811115610c1157600080fd5b820183602082011115610c2357600080fd5b80359060200191846001830284011164010000000083111715610c4557600080fd5b91908080601f016020809104026020016040519081016040528093929190818152602001838380828437600081840152601f19601f820116905080830192505050505050509192919290505050612445565b005b348015610ca557600080fd5b50610ce860048036036020811015610cbc57600080fd5b81019080803573ffffffffffffffffffffffffffffffffffffffff1690602001909291905050506126bf565b6040518080602001828103825283818151815260200191508051906020019060200280838360005b83811015610d2b578082015181840152602081019050610d10565b505050509050019250505060405180910390f35b348015610d4b57600080fd5b50610d7860048036036020811015610d6257600080fd5b8101908080359060200190929190505050612756565b005b348015610d8657600080fd5b50610dc960048036036020811015610d9d57600080fd5b81019080803573ffffffffffffffffffffffffffffffffffffffff169060200190929190505050612a37565b604051808a73ffffffffffffffffffffffffffffffffffffffff168152602001806020018981526020018060200180602001806020018060200180602001881515815260200187810387528f818151815260200191508051906020019080838360005b83811015610e47578082015181840152602081019050610e2c565b50505050905090810190601f168015610e745780820380516001836020036101000a031916815260200191505b5087810386528d818151815260200191508051906020019080838360005b83811015610ead578082015181840152602081019050610e92565b50505050905090810190601f168015610eda5780820380516001836020036101000a031916815260200191505b5087810385528c818151815260200191508051906020019080838360005b83811015610f13578082015181840152602081019050610ef8565b50505050905090810190601f168015610f405780820380516001836020036101000a031916815260200191505b5087810384528b818151815260200191508051906020019080838360005b83811015610f79578082015181840152602081019050610f5e565b50505050905090810190601f168015610fa65780820380516001836020036101000a031916815260200191505b5087810383528a818151815260200191508051906020019080838360005b83811015610fdf578082015181840152602081019050610fc4565b50505050905090810190601f16801561100c5780820380516001836020036101000a031916815260200191505b50878103825289818151815260200191508051906020019080838360005b8381101561104557808201518184015260208101905061102a565b50505050905090810190601f1680156110725780820380516001836020036101000a031916815260200191505b509f5050505050505050505050505050505060405180910390f35b34801561109957600080fd5b506110c6600480360360208110156110b057600080fd5b8101908080359060200190929190505050612e42565b6040518082815260200191505060405180910390f35b3480156110e857600080fd5b50611115600480360360208110156110ff57600080fd5b8101908080359060200190929190505050612e62565b60405180821515815260200191505060405180910390f35b34801561113957600080fd5b5061117c6004803603602081101561115057600080fd5b81019080803573ffffffffffffffffffffffffffffffffffffffff169060200190929190505050612e8f565b60405180821515815260200191505060405180910390f35b3480156111a057600080fd5b506111e3600480360360208110156111b757600080fd5b81019080803573ffffffffffffffffffffffffffffffffffffffff169060200190929190505050612ef9565b60405180821515815260200191505060405180910390f35b34801561120757600080fd5b506112346004803603602081101561121e57600080fd5b8101908080359060200190929190505050612f60565b604051808c81526020018b8152602001806020018a815260200180602001898152602001806020018060200188151581526020018773ffffffffffffffffffffffffffffffffffffffff168152602001861515815260200185810385528e818151815260200191508051906020019080838360005b838110156112c45780820151818401526020810190506112a9565b50505050905090810190601f1680156112f15780820380516001836020036101000a031916815260200191505b5085810384528c818151815260200191508051906020019080838360005b8381101561132a57808201518184015260208101905061130f565b50505050905090810190601f1680156113575780820380516001836020036101000a031916815260200191505b5085810383528a818151815260200191508051906020019080838360005b83811015611390578082015181840152602081019050611375565b50505050905090810190601f1680156113bd5780820380516001836020036101000a031916815260200191505b50858103825289818151815260200191508051906020019080838360005b838110156113f65780820151818401526020810190506113db565b50505050905090810190601f1680156114235780820380516001836020036101000a031916815260200191505b509f5050505050505050505050505050505060405180910390f35b34801561144a57600080fd5b50611801600480360360e081101561146157600080fd5b810190808035906020019064010000000081111561147e57600080fd5b82018360208201111561149057600080fd5b803590602001918460018302840111640100000000831117156114b257600080fd5b91908080601f016020809104026020016040519081016040528093929190818152602001838380828437600081840152601f19601f820116905080830192505050505050509192919290803590602001909291908035906020019064010000000081111561151f57600080fd5b82018360208201111561153157600080fd5b8035906020019184600183028401116401000000008311171561155357600080fd5b91908080601f016020809104026020016040519081016040528093929190818152602001838380828437600081840152601f19601f820116905080830192505050505050509192919290803590602001906401000000008111156115b657600080fd5b8201836020820111156115c857600080fd5b803590602001918460018302840111640100000000831117156115ea57600080fd5b91908080601f016020809104026020016040519081016040528093929190818152602001838380828437600081840152601f19601f8201169050808301925050505050505091929192908035906020019064010000000081111561164d57600080fd5b82018360208201111561165f57600080fd5b8035906020019184600183028401116401000000008311171561168157600080fd5b91908080601f016020809104026020016040519081016040528093929190818152602001838380828437600081840152601f19601f820116905080830192505050505050509192919290803590602001906401000000008111156116e457600080fd5b8201836020820111156116f657600080fd5b8035906020019184600183028401116401000000008311171561171857600080fd5b91908080601f016020809104026020016040519081016040528093929190818152602001838380828437600081840152601f19601f8201169050808301925050505050505091929192908035906020019064010000000081111561177b57600080fd5b82018360208201111561178d57600080fd5b803590602001918460018302840111640100000000831117156117af57600080fd5b91908080601f016020809104026020016040519081016040528093929190818152602001838380828437600081840152601f19601f820116905080830192505050505050509192919290505050613254565b005b34801561180f57600080fd5b5061183c6004803603602081101561182657600080fd5b81019080803590602001909291905050506135a2565b005b34801561184a57600080fd5b5061190e6004803603604081101561186157600080fd5b81019080803590602001909291908035906020019064010000000081111561188857600080fd5b82018360208201111561189a57600080fd5b803590602001918460018302840111640100000000831117156118bc57600080fd5b91908080601f016020809104026020016040519081016040528093929190818152602001838380828437600081840152601f19601f8201169050808301925050505050505091929192905050506135e6565b60405180821515815260200191505060405180910390f35b60025481565b6000600b60008373ffffffffffffffffffffffffffffffffffffffff1673ffffffffffffffffffffffffffffffffffffffff16815260200190815260200160002060009054906101000a900460ff1615611989576001905061198e565b600090505b919050565b60035481565b606060116000600181526020019081526020016000208054806020026020016040519081016040528092919081815260200182805480156119f957602002820191906000526020600020905b8154815260200190600101908083116119e5575b5050505050905090565b3373ffffffffffffffffffffffffffffffffffffffff16600e600083815260200190815260200160002060010160009054906101000a900473ffffffffffffffffffffffffffffffffffffffff1673ffffffffffffffffffffffffffffffffffffffff1614611a7157600080fd5b6002600e600083815260200190815260200160002060040160006101000a81548160ff02191690836004811115611aa457fe5b021790555050565b6060600f60003373ffffffffffffffffffffffffffffffffffffffff1673ffffffffffffffffffffffffffffffffffffffff168152602001908152602001600020805480602002602001604051908101604052809291908181526020018280548015611b3757602002820191906000526020600020905b815481526020019060010190808311611b23575b5050505050905090565b3373ffffffffffffffffffffffffffffffffffffffff16600e600083815260200190815260200160002060010160009054906101000a900473ffffffffffffffffffffffffffffffffffffffff1673ffffffffffffffffffffffffffffffffffffffff1614611baf57600080fd5b6001600e600083815260200190815260200160002060040160006101000a81548160ff02191690836004811115611be257fe5b021790555050565b611bf333612ef9565b611bfc57600080fd5b6001600860008373ffffffffffffffffffffffffffffffffffffffff1673ffffffffffffffffffffffffffffffffffffffff16815260200190815260200160002060080160006101000a81548160ff02191690831515021790555050565b3373ffffffffffffffffffffffffffffffffffffffff16600e600083815260200190815260200160002060020160009054906101000a900473ffffffffffffffffffffffffffffffffffffffff1673ffffffffffffffffffffffffffffffffffffffff16148015611d04575060016004811115611cd357fe5b600e600083815260200190815260200160002060040160009054906101000a900460ff166004811115611d0257fe5b145b611d0d57600080fd5b6003600e600083815260200190815260200160002060040160006101000a81548160ff02191690836004811115611d4057fe5b0217905550600d6000600e600084815260200190815260200160002060030154815260200190815260200160002060080160019054906101000a900473ffffffffffffffffffffffffffffffffffffffff1673ffffffffffffffffffffffffffffffffffffffff166108fc349081150290604051600060405180830381858888f19350505050158015611dd7573d6000803e3d6000fd5b506001600e600083815260200190815260200160002060040160016101000a81548160ff021916908315150217905550601260006001815260200190815260200160002081908060018154018082558091505060019003906000526020600020016000909190919091505550565b6060600a600060018152602001908152602001600020805480602002602001604051908101604052809291908181526020018280548015611edb57602002820191906000526020600020905b8160009054906101000a900473ffffffffffffffffffffffffffffffffffffffff1673ffffffffffffffffffffffffffffffffffffffff1681526020019060010190808311611e91575b5050505050905090565b6000600d600083815260200190815260200160002060080160159054906101000a900460ff169050919050565b60045481565b8073ffffffffffffffffffffffffffffffffffffffff166108fc349081150290604051600060405180830381858888f19350505050158015611f5e573d6000803e3d6000fd5b5050565b6060601060003373ffffffffffffffffffffffffffffffffffffffff1673ffffffffffffffffffffffffffffffffffffffff168152602001908152602001600020805480602002602001604051908101604052809291908181526020018280548015611fed57602002820191906000526020600020905b815481526020019060010190808311611fd9575b5050505050905090565b6060601260006001815260200190815260200160002080548060200260200160405190810160405280929190818152602001828054801561205757602002820191906000526020600020905b815481526020019060010190808311612043575b5050505050905090565b6000600860008373ffffffffffffffffffffffffffffffffffffffff1673ffffffffffffffffffffffffffffffffffffffff16815260200190815260200160002060080160009054906101000a900460ff169050919050565b600e6020528060005260406000206000915090508060000154908060010160009054906101000a900473ffffffffffffffffffffffffffffffffffffffff16908060020160009054906101000a900473ffffffffffffffffffffffffffffffffffffffff16908060030154908060040160009054906101000a900460ff16908060040160019054906101000a900460ff16905086565b3373ffffffffffffffffffffffffffffffffffffffff16600d600083815260200190815260200160002060080160019054906101000a900473ffffffffffffffffffffffffffffffffffffffff1673ffffffffffffffffffffffffffffffffffffffff16146121be57600080fd5b6001600d600083815260200190815260200160002060080160006101000a81548160ff02191690831515021790555050565b60003373ffffffffffffffffffffffffffffffffffffffff1660008054906101000a900473ffffffffffffffffffffffffffffffffffffffff1673ffffffffffffffffffffffffffffffffffffffff161461224e576000905061243c565b3373ffffffffffffffffffffffffffffffffffffffff1660008054906101000a900473ffffffffffffffffffffffffffffffffffffffff1673ffffffffffffffffffffffffffffffffffffffff16146122a657600080fd5b6001600760008873ffffffffffffffffffffffffffffffffffffffff1673ffffffffffffffffffffffffffffffffffffffff16815260200190815260200160002060006101000a81548160ff0219169083151502179055506040518060c0016040528060015481526020018773ffffffffffffffffffffffffffffffffffffffff16815260200186815260200185815260200184815260200183815250600660008873ffffffffffffffffffffffffffffffffffffffff1673ffffffffffffffffffffffffffffffffffffffff1681526020019081526020016000206000820151816000015560208201518160010160006101000a81548173ffffffffffffffffffffffffffffffffffffffff021916908373ffffffffffffffffffffffffffffffffffffffff16021790555060408201518160020190805190602001906123ef929190613b55565b50606082015181600301556080820151816004019080519060200190612416929190613b55565b5060a0820151816005019080519060200190612433929190613b55565b50905050600190505b95945050505050565b61244e33612061565b61245757600080fd5b60036000815480929190600101919050555060405180610160016040528060035481526020018881526020018781526020018681526020018581526020018481526020018381526020018281526020016000151581526020013373ffffffffffffffffffffffffffffffffffffffff16815260200160001515815250600d6000600354815260200190815260200160002060008201518160000155602082015181600101556040820151816002019080519060200190612518929190613b55565b5060608201518160030155608082015181600401908051906020019061253f929190613b55565b5060a0820151816005015560c0820151816006019080519060200190612566929190613b55565b5060e0820151816007019080519060200190612583929190613b55565b506101008201518160080160006101000a81548160ff0219169083151502179055506101208201518160080160016101000a81548173ffffffffffffffffffffffffffffffffffffffff021916908373ffffffffffffffffffffffffffffffffffffffff1602179055506101408201518160080160156101000a81548160ff021916908315150217905550905050600c60003373ffffffffffffffffffffffffffffffffffffffff1673ffffffffffffffffffffffffffffffffffffffff16815260200190815260200160002060035490806001815401808255809150506001900390600052602060002001600090919091909150556011600060018152602001908152602001600020600354908060018154018082558091505060019003906000526020600020016000909190919091505550505050505050565b6060600c60008373ffffffffffffffffffffffffffffffffffffffff1673ffffffffffffffffffffffffffffffffffffffff16815260200190815260200160002080548060200260200160405190810160405280929190818152602001828054801561274a57602002820191906000526020600020905b815481526020019060010190808311612736575b50505050509050919050565b61275f33612061565b8015612770575061276f81611ee5565b5b61277957600080fd5b6005600081548092919060010191905055506040518060c001604052806005548152602001600d600084815260200190815260200160002060080160019054906101000a900473ffffffffffffffffffffffffffffffffffffffff1673ffffffffffffffffffffffffffffffffffffffff1681526020013373ffffffffffffffffffffffffffffffffffffffff1681526020018281526020016000600481111561281f57fe5b815260200160001515815250600e600060055481526020019081526020016000206000820151816000015560208201518160010160006101000a81548173ffffffffffffffffffffffffffffffffffffffff021916908373ffffffffffffffffffffffffffffffffffffffff16021790555060408201518160020160006101000a81548173ffffffffffffffffffffffffffffffffffffffff021916908373ffffffffffffffffffffffffffffffffffffffff1602179055506060820151816003015560808201518160040160006101000a81548160ff0219169083600481111561290657fe5b021790555060a08201518160040160016101000a81548160ff021916908315150217905550905050600f6000600d600084815260200190815260200160002060080160019054906101000a900473ffffffffffffffffffffffffffffffffffffffff1673ffffffffffffffffffffffffffffffffffffffff1673ffffffffffffffffffffffffffffffffffffffff1681526020019081526020016000206005549080600181540180825580915050600190039060005260206000200160009091909190915055601060003373ffffffffffffffffffffffffffffffffffffffff1673ffffffffffffffffffffffffffffffffffffffff168152602001908152602001600020600554908060018154018082558091505060019003906000526020600020016000909190919091505550565b60086020528060005260406000206000915090508060000160009054906101000a900473ffffffffffffffffffffffffffffffffffffffff1690806001018054600181600116156101000203166002900480601f016020809104026020016040519081016040528092919081815260200182805460018160011615610100020316600290048015612b095780601f10612ade57610100808354040283529160200191612b09565b820191906000526020600020905b815481529060010190602001808311612aec57829003601f168201915b505050505090806002015490806003018054600181600116156101000203166002900480601f016020809104026020016040519081016040528092919081815260200182805460018160011615610100020316600290048015612bad5780601f10612b8257610100808354040283529160200191612bad565b820191906000526020600020905b815481529060010190602001808311612b9057829003601f168201915b505050505090806004018054600181600116156101000203166002900480601f016020809104026020016040519081016040528092919081815260200182805460018160011615610100020316600290048015612c4b5780601f10612c2057610100808354040283529160200191612c4b565b820191906000526020600020905b815481529060010190602001808311612c2e57829003601f168201915b505050505090806005018054600181600116156101000203166002900480601f016020809104026020016040519081016040528092919081815260200182805460018160011615610100020316600290048015612ce95780601f10612cbe57610100808354040283529160200191612ce9565b820191906000526020600020905b815481529060010190602001808311612ccc57829003601f168201915b505050505090806006018054600181600116156101000203166002900480601f016020809104026020016040519081016040528092919081815260200182805460018160011615610100020316600290048015612d875780601f10612d5c57610100808354040283529160200191612d87565b820191906000526020600020905b815481529060010190602001808311612d6a57829003601f168201915b505050505090806007018054600181600116156101000203166002900480601f016020809104026020016040519081016040528092919081815260200182805460018160011615610100020316600290048015612e255780601f10612dfa57610100808354040283529160200191612e25565b820191906000526020600020905b815481529060010190602001808311612e0857829003601f168201915b5050505050908060080160009054906101000a900460ff16905089565b6000600d6000838152602001908152602001600020600301549050919050565b6000600e600083815260200190815260200160002060040160019054906101000a900460ff169050919050565b60008060009054906101000a900473ffffffffffffffffffffffffffffffffffffffff1673ffffffffffffffffffffffffffffffffffffffff168273ffffffffffffffffffffffffffffffffffffffff161415612eef5760019050612ef4565b600090505b919050565b6000600760008373ffffffffffffffffffffffffffffffffffffffff1673ffffffffffffffffffffffffffffffffffffffff16815260200190815260200160002060009054906101000a900460ff1615612f565760019050612f5b565b600090505b919050565b600d602052806000526040600020600091509050806000015490806001015490806002018054600181600116156101000203166002900480601f0160208091040260200160405190810160405280929190818152602001828054600181600116156101000203166002900480156130185780601f10612fed57610100808354040283529160200191613018565b820191906000526020600020905b815481529060010190602001808311612ffb57829003601f168201915b505050505090806003015490806004018054600181600116156101000203166002900480601f0160208091040260200160405190810160405280929190818152602001828054600181600116156101000203166002900480156130bc5780601f10613091576101008083540402835291602001916130bc565b820191906000526020600020905b81548152906001019060200180831161309f57829003601f168201915b505050505090806005015490806006018054600181600116156101000203166002900480601f0160208091040260200160405190810160405280929190818152602001828054600181600116156101000203166002900480156131605780601f1061313557610100808354040283529160200191613160565b820191906000526020600020905b81548152906001019060200180831161314357829003601f168201915b505050505090806007018054600181600116156101000203166002900480601f0160208091040260200160405190810160405280929190818152602001828054600181600116156101000203166002900480156131fe5780601f106131d3576101008083540402835291602001916131fe565b820191906000526020600020905b8154815290600101906020018083116131e157829003601f168201915b5050505050908060080160009054906101000a900460ff16908060080160019054906101000a900473ffffffffffffffffffffffffffffffffffffffff16908060080160159054906101000a900460ff1690508b565b600b60003373ffffffffffffffffffffffffffffffffffffffff1673ffffffffffffffffffffffffffffffffffffffff16815260200190815260200160002060009054906101000a900460ff16156132ab57600080fd5b6001600b60003373ffffffffffffffffffffffffffffffffffffffff1673ffffffffffffffffffffffffffffffffffffffff16815260200190815260200160002060006101000a81548160ff021916908315150217905550600260008154809291906001019190505550600a600060018152602001908152602001600020339080600181540180825580915050600190039060005260206000200160009091909190916101000a81548173ffffffffffffffffffffffffffffffffffffffff021916908373ffffffffffffffffffffffffffffffffffffffff1602179055503360096000600254815260200190815260200160002060006101000a81548173ffffffffffffffffffffffffffffffffffffffff021916908373ffffffffffffffffffffffffffffffffffffffff1602179055506040518061012001604052803373ffffffffffffffffffffffffffffffffffffffff16815260200188815260200187815260200186815260200185815260200184815260200183815260200182815260200160001515815250600860003373ffffffffffffffffffffffffffffffffffffffff1673ffffffffffffffffffffffffffffffffffffffff16815260200190815260200160002060008201518160000160006101000a81548173ffffffffffffffffffffffffffffffffffffffff021916908373ffffffffffffffffffffffffffffffffffffffff16021790555060208201518160010190805190602001906134d9929190613b55565b50604082015181600201556060820151816003019080519060200190613500929190613b55565b50608082015181600401908051906020019061351d929190613b55565b5060a082015181600501908051906020019061353a929190613b55565b5060c0820151816006019080519060200190613557929190613b55565b5060e0820151816007019080519060200190613574929190613b55565b506101008201518160080160006101000a81548160ff02191690831515021790555090505050505050505050565b6135ab33612ef9565b6135b457600080fd5b6001600d600083815260200190815260200160002060080160156101000a81548160ff02191690831515021790555050565b60006135f133612ef9565b6135fa57600080fd5b60001515600e600085815260200190815260200160002060040160019054906101000a900460ff16151514156136335760009050613b4f565b6004600081548092919060010191905055506004600e600085815260200190815260200160002060040160006101000a81548160ff0219169083600481111561367857fe5b0217905550600c6000600e600086815260200190815260200160002060020160009054906101000a900473ffffffffffffffffffffffffffffffffffffffff1673ffffffffffffffffffffffffffffffffffffffff1673ffffffffffffffffffffffffffffffffffffffff168152602001908152602001600020600e60008581526020019081526020016000206003015490806001815401808255809150506001900390600052602060002001600090919091909150556000600c6000600e600087815260200190815260200160002060010160009054906101000a900473ffffffffffffffffffffffffffffffffffffffff1673ffffffffffffffffffffffffffffffffffffffff1673ffffffffffffffffffffffffffffffffffffffff16815260200190815260200160002080549050905060005b81811015613a2157600e600086815260200190815260200160002060030154600c6000600e600089815260200190815260200160002060010160009054906101000a900473ffffffffffffffffffffffffffffffffffffffff1673ffffffffffffffffffffffffffffffffffffffff1673ffffffffffffffffffffffffffffffffffffffff168152602001908152602001600020828154811061384e57fe5b90600052602060002001541415613a1457600c6000600e600088815260200190815260200160002060010160009054906101000a900473ffffffffffffffffffffffffffffffffffffffff1673ffffffffffffffffffffffffffffffffffffffff1673ffffffffffffffffffffffffffffffffffffffff16815260200190815260200160002060018303815481106138e257fe5b9060005260206000200154600c6000600e600089815260200190815260200160002060010160009054906101000a900473ffffffffffffffffffffffffffffffffffffffff1673ffffffffffffffffffffffffffffffffffffffff1673ffffffffffffffffffffffffffffffffffffffff168152602001908152602001600020828154811061396d57fe5b9060005260206000200181905550600c6000600e600088815260200190815260200160002060010160009054906101000a900473ffffffffffffffffffffffffffffffffffffffff1673ffffffffffffffffffffffffffffffffffffffff1673ffffffffffffffffffffffffffffffffffffffff1681526020019081526020016000208054806139f957fe5b60019003818190600052602060002001600090559055613a21565b80806001019150506137af565b5082600d6000600e60008881526020019081526020016000206003015481526020019081526020016000206007019080519060200190613a62929190613b55565b506000600d6000600e600088815260200190815260200160002060030154815260200190815260200160002060080160006101000a81548160ff021916908315150217905550600e600085815260200190815260200160002060020160009054906101000a900473ffffffffffffffffffffffffffffffffffffffff16600d6000600e600088815260200190815260200160002060030154815260200190815260200160002060080160016101000a81548173ffffffffffffffffffffffffffffffffffffffff021916908373ffffffffffffffffffffffffffffffffffffffff16021790555060019150505b92915050565b828054600181600116156101000203166002900490600052602060002090601f016020900481019282601f10613b9657805160ff1916838001178555613bc4565b82800160010185558215613bc4579182015b82811115613bc3578251825591602001919060010190613ba8565b5b509050613bd19190613bd5565b5090565b5b80821115613bee576000816000905550600101613bd6565b509056fea26469706673582212206cb605e94f0863190e084b04261e0e30bbf9b550a2facfafdefc2cd2293c433064736f6c634300060c0033",
  "source": "//pragma solidity >= 0.5.2;\r\npragma solidity ^0.6.0;\r\n\r\ncontract Land {\r\n    address contractOwner;\r\n\r\n    constructor() public{\r\n        contractOwner = msg.sender;\r\n    }\r\n\r\n    struct Landreg {\r\n        uint id;\r\n        uint area;\r\n        string landAddress;\r\n        uint landPrice;\r\n        string allLatitudeLongitude;\r\n        //string allLongitude;\r\n        uint propertyPID;\r\n        string physicalSurveyNumber;\r\n        string document;\r\n        bool isforSell;\r\n        address payable ownerAddress;\r\n        bool isLandVerified;\r\n    }\r\n\r\n    struct User{\r\n        address id;\r\n        string name;\r\n        uint age;\r\n        string city;\r\n        string aadharNumber;\r\n        string panNumber;\r\n        string document;\r\n        string email;\r\n        bool isUserVerified;\r\n    }\r\n\r\n    struct LandInspector {\r\n        uint id;\r\n        address _addr;\r\n        string name;\r\n        uint age;\r\n        string designation;\r\n        string city;\r\n    }\r\n\r\n    struct LandRequest{\r\n        uint reqId;\r\n        address payable sellerId;\r\n        address payable buyerId;\r\n        uint landId;\r\n        reqStatus requestStatus;\r\n        bool isPaymentDone;\r\n    }\r\n    enum reqStatus {requested,accepted,rejected,paymentdone,commpleted}\r\n\r\n\r\n    uint inspectorsCount;\r\n    uint public userCount;\r\n    uint public landsCount;\r\n    uint public documentId;\r\n    uint requestCount;\r\n\r\n\r\n    mapping(address => LandInspector) InspectorMapping;\r\n    mapping(address => bool)  RegisteredInspectorMapping;\r\n    mapping(address => User) public UserMapping;\r\n    mapping(uint => address)  AllUsers;\r\n    mapping(uint => address[])  allUsersList;\r\n    mapping(address => bool)  RegisteredUserMapping;\r\n    mapping(address => uint[])  MyLands;\r\n    mapping(uint => Landreg) public lands;\r\n    mapping(uint => LandRequest) public LandRequestMapping;\r\n    mapping(address => uint[])  MyReceivedLandRequest;\r\n    mapping(address => uint[])  MySentLandRequest;\r\n    mapping(uint => uint[])  allLandList;\r\n    mapping(uint => uint[])  paymentDoneList;\r\n\r\n\r\n    function isContractOwner(address _addr) public view returns(bool){\r\n        if(_addr==contractOwner)\r\n            return true;\r\n        else\r\n            return false;\r\n    }\r\n\r\n    //-----------------------------------------------LandInspector-----------------------------------------------\r\n\r\n    function addLandInspector(address _addr,string memory _name, uint _age, string memory _designation,string memory _city) public returns(bool){\r\n        if(contractOwner!=msg.sender)\r\n            return false;\r\n        require(contractOwner==msg.sender);\r\n        RegisteredInspectorMapping[_addr]=true;\r\n        InspectorMapping[_addr] = LandInspector(inspectorsCount,_addr,_name, _age, _designation,_city);\r\n        return true;\r\n    }\r\n\r\n\r\n\r\n    function isLandInspector(address _id) public view returns (bool) {\r\n        if(RegisteredInspectorMapping[_id]){\r\n            return true;\r\n        }else{\r\n            return false;\r\n        }\r\n    }\r\n\r\n\r\n\r\n    //-----------------------------------------------User-----------------------------------------------\r\n\r\n    function isUserRegistered(address _addr) public view returns(bool)\r\n    {\r\n        if(RegisteredUserMapping[_addr]){\r\n            return true;\r\n        }else{\r\n            return false;\r\n        }\r\n    }\r\n\r\n    function registerUser(string memory _name, uint _age, string memory _city,string memory _aadharNumber, string memory _panNumber, string memory _document, string memory _email\r\n    ) public {\r\n\r\n        require(!RegisteredUserMapping[msg.sender]);\r\n\r\n        RegisteredUserMapping[msg.sender] = true;\r\n        userCount++;\r\n        allUsersList[1].push(msg.sender);\r\n        AllUsers[userCount]=msg.sender;\r\n        UserMapping[msg.sender] = User(msg.sender, _name, _age, _city,_aadharNumber,_panNumber, _document,_email,false);\r\n        //emit Registration(msg.sender);\r\n    }\r\n\r\n    function verifyUser(address _userId) public{\r\n        require(isLandInspector(msg.sender));\r\n        UserMapping[_userId].isUserVerified=true;\r\n    }\r\n    function isUserVerified(address id) public view returns(bool){\r\n        return UserMapping[id].isUserVerified;\r\n    }\r\n    function ReturnAllUserList() public view returns(address[] memory)\r\n    {\r\n        return allUsersList[1];\r\n    }\r\n\r\n\r\n    //-----------------------------------------------Land-----------------------------------------------\r\n    function addLand(uint _area, string memory _address, uint landPrice,string memory _allLatiLongi, uint _propertyPID,string memory _surveyNum, string memory _document) public {\r\n        require(isUserVerified(msg.sender));\r\n        landsCount++;\r\n        lands[landsCount] = Landreg(landsCount, _area, _address, landPrice,_allLatiLongi,_propertyPID, _surveyNum , _document,false,msg.sender,false);\r\n        MyLands[msg.sender].push(landsCount);\r\n        allLandList[1].push(landsCount);\r\n        // emit AddingLand(landsCount);\r\n    }\r\n\r\n    function ReturnAllLandList() public view returns(uint[] memory)\r\n    {\r\n        return allLandList[1];\r\n    }\r\n\r\n    function verifyLand(uint _id) public{\r\n        require(isLandInspector(msg.sender));\r\n        lands[_id].isLandVerified=true;\r\n    }\r\n    function isLandVerified(uint id) public view returns(bool){\r\n        return lands[id].isLandVerified;\r\n    }\r\n\r\n    function myAllLands(address id) public view returns( uint[] memory){\r\n        return MyLands[id];\r\n    }\r\n\r\n\r\n    function makeItforSell(uint id) public{\r\n        require(lands[id].ownerAddress==msg.sender);\r\n        lands[id].isforSell=true;\r\n    }\r\n\r\n    function requestforBuy(uint _landId) public\r\n    {\r\n        require(isUserVerified(msg.sender) && isLandVerified(_landId));\r\n        requestCount++;\r\n        LandRequestMapping[requestCount]=LandRequest(requestCount,lands[_landId].ownerAddress,msg.sender,_landId,reqStatus.requested,false);\r\n        MyReceivedLandRequest[lands[_landId].ownerAddress].push(requestCount);\r\n        MySentLandRequest[msg.sender].push(requestCount);\r\n    }\r\n\r\n    function myReceivedLandRequests() public view returns(uint[] memory)\r\n    {\r\n        return MyReceivedLandRequest[msg.sender];\r\n    }\r\n    function mySentLandRequests() public view returns(uint[] memory)\r\n    {\r\n        return MySentLandRequest[msg.sender];\r\n    }\r\n    function acceptRequest(uint _requestId) public\r\n    {\r\n        require(LandRequestMapping[_requestId].sellerId==msg.sender);\r\n        LandRequestMapping[_requestId].requestStatus=reqStatus.accepted;\r\n    }\r\n    function rejectRequest(uint _requestId) public\r\n    {\r\n        require(LandRequestMapping[_requestId].sellerId==msg.sender);\r\n        LandRequestMapping[_requestId].requestStatus=reqStatus.rejected;\r\n    }\r\n\r\n    function requesteStatus(uint id) public view returns(bool)\r\n    {\r\n        return LandRequestMapping[id].isPaymentDone;\r\n    }\r\n\r\n    function landPrice(uint id) public view returns(uint)\r\n    {\r\n        return lands[id].landPrice;\r\n    }\r\n    function makePayment(uint _requestId) public payable\r\n    {\r\n        require(LandRequestMapping[_requestId].buyerId==msg.sender && LandRequestMapping[_requestId].requestStatus==reqStatus.accepted);\r\n\r\n        LandRequestMapping[_requestId].requestStatus=reqStatus.paymentdone;\r\n        //LandRequestMapping[_requestId].sellerId.transfer(lands[LandRequestMapping[_requestId].landId].landPrice);\r\n        //lands[LandRequestMapping[_requestId].landId].ownerAddress.transfer(lands[LandRequestMapping[_requestId].landId].landPrice);\r\n        lands[LandRequestMapping[_requestId].landId].ownerAddress.transfer(msg.value);\r\n        LandRequestMapping[_requestId].isPaymentDone=true;\r\n        paymentDoneList[1].push(_requestId);\r\n    }\r\n\r\n    function returnPaymentDoneList() public view returns(uint[] memory)\r\n    {\r\n        return paymentDoneList[1];\r\n    }\r\n\r\n    function transferOwnership(uint _requestId,string memory documentUrl) public returns(bool)\r\n    {\r\n        require(isLandInspector(msg.sender));\r\n        if(LandRequestMapping[_requestId].isPaymentDone==false)\r\n            return false;\r\n        documentId++;\r\n        LandRequestMapping[_requestId].requestStatus=reqStatus.commpleted;\r\n        MyLands[LandRequestMapping[_requestId].buyerId].push(LandRequestMapping[_requestId].landId);\r\n\r\n        uint len=MyLands[LandRequestMapping[_requestId].sellerId].length;\r\n        for(uint i=0;i<len;i++)\r\n        {\r\n            if(MyLands[LandRequestMapping[_requestId].sellerId][i]==LandRequestMapping[_requestId].landId)\r\n            {\r\n                MyLands[LandRequestMapping[_requestId].sellerId][i]=MyLands[LandRequestMapping[_requestId].sellerId][len-1];\r\n                //MyLands[LandRequestMapping[_requestId].sellerId].length--;\r\n                MyLands[LandRequestMapping[_requestId].sellerId].pop();\r\n                break;\r\n            }\r\n        }\r\n        lands[LandRequestMapping[_requestId].landId].document=documentUrl;\r\n        lands[LandRequestMapping[_requestId].landId].isforSell=false;\r\n        lands[LandRequestMapping[_requestId].landId].ownerAddress=LandRequestMapping[_requestId].buyerId;\r\n        return true;\r\n    }\r\n    function makePaymentTestFun(address payable _reveiver) public payable\r\n    {\r\n        _reveiver.transfer(msg.value);\r\n    }\r\n}",
  "sourcePath": "C:\\Users\\shree\\Documents\\Land Registration Flutter\\land_registration\\contracts\\landContrat.sol",
  "compiler": {
    "name": "solc",
    "version": "0.6.12+commit.27d51765.Emscripten.clang"
  },
  "schemaVersion": "3.0.23",
  "updatedAt": "2022-01-08T12:55:42.809Z",
  "networkType": "ethereum",
  "devdoc": {
    "kind": "dev",
    "methods": {},
    "version": 1
  },
  "userdoc": {
    "kind": "user",
    "methods": {},
    "version": 1
  }
}