{
  "contractName": "Land",
  "abi": [
    {
      "inputs": [],
      "stateMutability": "nonpayable",
      "type": "constructor"
    },
    {
      "inputs": [
        {
          "internalType": "uint256",
          "name": "",
          "type": "uint256"
        }
      ],
      "name": "LandRequestMapping",
      "outputs": [
        {
          "internalType": "uint256",
          "name": "reqId",
          "type": "uint256"
        },
        {
          "internalType": "address payable",
          "name": "sellerId",
          "type": "address"
        },
        {
          "internalType": "address payable",
          "name": "buyerId",
          "type": "address"
        },
        {
          "internalType": "uint256",
          "name": "landId",
          "type": "uint256"
        },
        {
          "internalType": "enum Land.reqStatus",
          "name": "requestStatus",
          "type": "uint8"
        },
        {
          "internalType": "bool",
          "name": "isPaymentDone",
          "type": "bool"
        }
      ],
      "stateMutability": "view",
      "type": "function",
      "constant": true
    },
    {
      "inputs": [
        {
          "internalType": "address",
          "name": "",
          "type": "address"
        }
      ],
      "name": "UserMapping",
      "outputs": [
        {
          "internalType": "address",
          "name": "id",
          "type": "address"
        },
        {
          "internalType": "string",
          "name": "name",
          "type": "string"
        },
        {
          "internalType": "uint256",
          "name": "age",
          "type": "uint256"
        },
        {
          "internalType": "string",
          "name": "city",
          "type": "string"
        },
        {
          "internalType": "string",
          "name": "aadharNumber",
          "type": "string"
        },
        {
          "internalType": "string",
          "name": "panNumber",
          "type": "string"
        },
        {
          "internalType": "string",
          "name": "document",
          "type": "string"
        },
        {
          "internalType": "string",
          "name": "email",
          "type": "string"
        },
        {
          "internalType": "bool",
          "name": "isUserVerified",
          "type": "bool"
        }
      ],
      "stateMutability": "view",
      "type": "function",
      "constant": true
    },
    {
      "inputs": [],
      "name": "documentId",
      "outputs": [
        {
          "internalType": "uint256",
          "name": "",
          "type": "uint256"
        }
      ],
      "stateMutability": "view",
      "type": "function",
      "constant": true
    },
    {
      "inputs": [
        {
          "internalType": "uint256",
          "name": "",
          "type": "uint256"
        }
      ],
      "name": "lands",
      "outputs": [
        {
          "internalType": "uint256",
          "name": "id",
          "type": "uint256"
        },
        {
          "internalType": "uint256",
          "name": "area",
          "type": "uint256"
        },
        {
          "internalType": "string",
          "name": "city",
          "type": "string"
        },
        {
          "internalType": "string",
          "name": "state",
          "type": "string"
        },
        {
          "internalType": "uint256",
          "name": "landPrice",
          "type": "uint256"
        },
        {
          "internalType": "uint256",
          "name": "propertyPID",
          "type": "uint256"
        },
        {
          "internalType": "uint256",
          "name": "physicalSurveyNumber",
          "type": "uint256"
        },
        {
          "internalType": "string",
          "name": "document",
          "type": "string"
        },
        {
          "internalType": "bool",
          "name": "isforSell",
          "type": "bool"
        },
        {
          "internalType": "address payable",
          "name": "ownerAddress",
          "type": "address"
        },
        {
          "internalType": "bool",
          "name": "isLandVerified",
          "type": "bool"
        }
      ],
      "stateMutability": "view",
      "type": "function",
      "constant": true
    },
    {
      "inputs": [],
      "name": "landsCount",
      "outputs": [
        {
          "internalType": "uint256",
          "name": "",
          "type": "uint256"
        }
      ],
      "stateMutability": "view",
      "type": "function",
      "constant": true
    },
    {
      "inputs": [],
      "name": "userCount",
      "outputs": [
        {
          "internalType": "uint256",
          "name": "",
          "type": "uint256"
        }
      ],
      "stateMutability": "view",
      "type": "function",
      "constant": true
    },
    {
      "inputs": [
        {
          "internalType": "address",
          "name": "_addr",
          "type": "address"
        }
      ],
      "name": "isContractOwner",
      "outputs": [
        {
          "internalType": "bool",
          "name": "",
          "type": "bool"
        }
      ],
      "stateMutability": "view",
      "type": "function",
      "constant": true
    },
    {
      "inputs": [
        {
          "internalType": "address",
          "name": "_addr",
          "type": "address"
        },
        {
          "internalType": "string",
          "name": "_name",
          "type": "string"
        },
        {
          "internalType": "uint256",
          "name": "_age",
          "type": "uint256"
        },
        {
          "internalType": "string",
          "name": "_designation",
          "type": "string"
        },
        {
          "internalType": "string",
          "name": "_city",
          "type": "string"
        }
      ],
      "name": "addLandInspector",
      "outputs": [
        {
          "internalType": "bool",
          "name": "",
          "type": "bool"
        }
      ],
      "stateMutability": "nonpayable",
      "type": "function"
    },
    {
      "inputs": [
        {
          "internalType": "address",
          "name": "_id",
          "type": "address"
        }
      ],
      "name": "isLandInspector",
      "outputs": [
        {
          "internalType": "bool",
          "name": "",
          "type": "bool"
        }
      ],
      "stateMutability": "view",
      "type": "function",
      "constant": true
    },
    {
      "inputs": [
        {
          "internalType": "address",
          "name": "_addr",
          "type": "address"
        }
      ],
      "name": "isUserRegistered",
      "outputs": [
        {
          "internalType": "bool",
          "name": "",
          "type": "bool"
        }
      ],
      "stateMutability": "view",
      "type": "function",
      "constant": true
    },
    {
      "inputs": [
        {
          "internalType": "string",
          "name": "_name",
          "type": "string"
        },
        {
          "internalType": "uint256",
          "name": "_age",
          "type": "uint256"
        },
        {
          "internalType": "string",
          "name": "_city",
          "type": "string"
        },
        {
          "internalType": "string",
          "name": "_aadharNumber",
          "type": "string"
        },
        {
          "internalType": "string",
          "name": "_panNumber",
          "type": "string"
        },
        {
          "internalType": "string",
          "name": "_document",
          "type": "string"
        },
        {
          "internalType": "string",
          "name": "_email",
          "type": "string"
        }
      ],
      "name": "registerUser",
      "outputs": [],
      "stateMutability": "nonpayable",
      "type": "function"
    },
    {
      "inputs": [
        {
          "internalType": "address",
          "name": "_userId",
          "type": "address"
        }
      ],
      "name": "verifyUser",
      "outputs": [],
      "stateMutability": "nonpayable",
      "type": "function"
    },
    {
      "inputs": [
        {
          "internalType": "address",
          "name": "id",
          "type": "address"
        }
      ],
      "name": "isUserVerified",
      "outputs": [
        {
          "internalType": "bool",
          "name": "",
          "type": "bool"
        }
      ],
      "stateMutability": "view",
      "type": "function",
      "constant": true
    },
    {
      "inputs": [],
      "name": "ReturnAllUserList",
      "outputs": [
        {
          "internalType": "address[]",
          "name": "",
          "type": "address[]"
        }
      ],
      "stateMutability": "view",
      "type": "function",
      "constant": true
    },
    {
      "inputs": [
        {
          "internalType": "uint256",
          "name": "_area",
          "type": "uint256"
        },
        {
          "internalType": "string",
          "name": "_city",
          "type": "string"
        },
        {
          "internalType": "string",
          "name": "_state",
          "type": "string"
        },
        {
          "internalType": "uint256",
          "name": "landPrice",
          "type": "uint256"
        },
        {
          "internalType": "uint256",
          "name": "_propertyPID",
          "type": "uint256"
        },
        {
          "internalType": "uint256",
          "name": "_surveyNum",
          "type": "uint256"
        },
        {
          "internalType": "string",
          "name": "_document",
          "type": "string"
        }
      ],
      "name": "addLand",
      "outputs": [],
      "stateMutability": "nonpayable",
      "type": "function"
    },
    {
      "inputs": [],
      "name": "ReturnAllLandList",
      "outputs": [
        {
          "internalType": "uint256[]",
          "name": "",
          "type": "uint256[]"
        }
      ],
      "stateMutability": "view",
      "type": "function",
      "constant": true
    },
    {
      "inputs": [
        {
          "internalType": "uint256",
          "name": "_id",
          "type": "uint256"
        }
      ],
      "name": "verifyLand",
      "outputs": [],
      "stateMutability": "nonpayable",
      "type": "function"
    },
    {
      "inputs": [
        {
          "internalType": "uint256",
          "name": "id",
          "type": "uint256"
        }
      ],
      "name": "isLandVerified",
      "outputs": [
        {
          "internalType": "bool",
          "name": "",
          "type": "bool"
        }
      ],
      "stateMutability": "view",
      "type": "function",
      "constant": true
    },
    {
      "inputs": [
        {
          "internalType": "address",
          "name": "id",
          "type": "address"
        }
      ],
      "name": "myAllLands",
      "outputs": [
        {
          "internalType": "uint256[]",
          "name": "",
          "type": "uint256[]"
        }
      ],
      "stateMutability": "view",
      "type": "function",
      "constant": true
    },
    {
      "inputs": [
        {
          "internalType": "uint256",
          "name": "id",
          "type": "uint256"
        }
      ],
      "name": "landInfo",
      "outputs": [
        {
          "internalType": "uint256",
          "name": "",
          "type": "uint256"
        },
        {
          "internalType": "string",
          "name": "",
          "type": "string"
        },
        {
          "internalType": "string",
          "name": "",
          "type": "string"
        },
        {
          "internalType": "uint256",
          "name": "",
          "type": "uint256"
        },
        {
          "internalType": "string",
          "name": "",
          "type": "string"
        },
        {
          "internalType": "bool",
          "name": "",
          "type": "bool"
        },
        {
          "internalType": "address",
          "name": "",
          "type": "address"
        }
      ],
      "stateMutability": "view",
      "type": "function",
      "constant": true
    },
    {
      "inputs": [
        {
          "internalType": "uint256",
          "name": "id",
          "type": "uint256"
        }
      ],
      "name": "makeItforSell",
      "outputs": [],
      "stateMutability": "nonpayable",
      "type": "function"
    },
    {
      "inputs": [
        {
          "internalType": "uint256",
          "name": "_landId",
          "type": "uint256"
        }
      ],
      "name": "requestforBuy",
      "outputs": [],
      "stateMutability": "nonpayable",
      "type": "function"
    },
    {
      "inputs": [],
      "name": "myReceivedLandRequests",
      "outputs": [
        {
          "internalType": "uint256[]",
          "name": "",
          "type": "uint256[]"
        }
      ],
      "stateMutability": "view",
      "type": "function",
      "constant": true
    },
    {
      "inputs": [],
      "name": "mySentLandRequests",
      "outputs": [
        {
          "internalType": "uint256[]",
          "name": "",
          "type": "uint256[]"
        }
      ],
      "stateMutability": "view",
      "type": "function",
      "constant": true
    },
    {
      "inputs": [
        {
          "internalType": "uint256",
          "name": "_requestId",
          "type": "uint256"
        }
      ],
      "name": "acceptRequest",
      "outputs": [],
      "stateMutability": "nonpayable",
      "type": "function"
    },
    {
      "inputs": [
        {
          "internalType": "uint256",
          "name": "_requestId",
          "type": "uint256"
        }
      ],
      "name": "rejectRequest",
      "outputs": [],
      "stateMutability": "nonpayable",
      "type": "function"
    },
    {
      "inputs": [
        {
          "internalType": "uint256",
          "name": "id",
          "type": "uint256"
        }
      ],
      "name": "requesteStatus",
      "outputs": [
        {
          "internalType": "bool",
          "name": "",
          "type": "bool"
        }
      ],
      "stateMutability": "view",
      "type": "function",
      "constant": true
    },
    {
      "inputs": [
        {
          "internalType": "uint256",
          "name": "id",
          "type": "uint256"
        }
      ],
      "name": "landPrice",
      "outputs": [
        {
          "internalType": "uint256",
          "name": "",
          "type": "uint256"
        }
      ],
      "stateMutability": "view",
      "type": "function",
      "constant": true
    },
    {
      "inputs": [
        {
          "internalType": "uint256",
          "name": "_requestId",
          "type": "uint256"
        }
      ],
      "name": "makePayment",
      "outputs": [],
      "stateMutability": "payable",
      "type": "function",
      "payable": true
    },
    {
      "inputs": [],
      "name": "returnPaymentDoneList",
      "outputs": [
        {
          "internalType": "uint256[]",
          "name": "",
          "type": "uint256[]"
        }
      ],
      "stateMutability": "view",
      "type": "function",
      "constant": true
    },
    {
      "inputs": [
        {
          "internalType": "uint256",
          "name": "_requestId",
          "type": "uint256"
        },
        {
          "internalType": "string",
          "name": "documentUrl",
          "type": "string"
        }
      ],
      "name": "transferOwnership",
      "outputs": [
        {
          "internalType": "bool",
          "name": "",
          "type": "bool"
        }
      ],
      "stateMutability": "nonpayable",
      "type": "function"
    },
    {
      "inputs": [
        {
          "internalType": "address payable",
          "name": "_reveiver",
          "type": "address"
        }
      ],
      "name": "makePaymentTestFun",
      "outputs": [],
      "stateMutability": "payable",
      "type": "function",
      "payable": true
    }
  ],
  "bytecode": "0x608060405234801561001057600080fd5b50336000806101000a81548173ffffffffffffffffffffffffffffffffffffffff021916908373ffffffffffffffffffffffffffffffffffffffff160217905550613f1a806100606000396000f3fe6080604052600436106101e35760003560e01c8063ace417e011610102578063d72ca9ec11610095578063e261f1e511610064578063e261f1e514611339578063edfbe24714611517578063f9c43bdf146118dc578063fa02454914611917576101e3565b8063d72ca9ec146111cb578063d8513de41461121a578063de1176881461126b578063e165af87146112d2576101e3565b8063c6dcdc37116100d1578063c6dcdc3714610ba1578063d196ebf214610dd7578063d3b368c014610e7d578063d61ff68c14610eb8576101e3565b8063ace417e014610894578063b10a30ed146108fb578063c26e11eb146109a6578063c3edcdd1146109e1576101e3565b80635114cb521161017a5780638b494825116101495780638b4948251461055a578063995a8d96146107785780639c32e3b4146107bc578063a846fc8f14610828576101e3565b80635114cb5214610444578063553a998d146104725780636cbf6cf8146104de57806378f7c83f1461052f576101e3565b80632d7788db116101b65780632d7788db14610311578063499701b21461034c5780634ba1f098146103b85780634d813120146103f3576101e3565b806307973ccf146101e8578063163f7522146102135780631c9afd0f1461027a57806323393d77146102a5575b600080fd5b3480156101f457600080fd5b506101fd6119ff565b6040518082815260200191505060405180910390f35b34801561021f57600080fd5b506102626004803603602081101561023657600080fd5b81019080803573ffffffffffffffffffffffffffffffffffffffff169060200190929190505050611a05565b60405180821515815260200191505060405180910390f35b34801561028657600080fd5b5061028f611a6c565b6040518082815260200191505060405180910390f35b3480156102b157600080fd5b506102ba611a72565b6040518080602001828103825283818151815260200191508051906020019060200280838360005b838110156102fd5780820151818401526020810190506102e2565b505050509050019250505060405180910390f35b34801561031d57600080fd5b5061034a6004803603602081101561033457600080fd5b8101908080359060200190929190505050611adc565b005b34801561035857600080fd5b50610361611b85565b6040518080602001828103825283818151815260200191508051906020019060200280838360005b838110156103a4578082015181840152602081019050610389565b505050509050019250505060405180910390f35b3480156103c457600080fd5b506103f1600480360360208110156103db57600080fd5b8101908080359060200190929190505050611c1a565b005b3480156103ff57600080fd5b506104426004803603602081101561041657600080fd5b81019080803573ffffffffffffffffffffffffffffffffffffffff169060200190929190505050611cc3565b005b6104706004803603602081101561045a57600080fd5b8101908080359060200190929190505050611d33565b005b34801561047e57600080fd5b50610487611f1e565b6040518080602001828103825283818151815260200191508051906020019060200280838360005b838110156104ca5780820151818401526020810190506104af565b505050509050019250505060405180910390f35b3480156104ea57600080fd5b506105176004803603602081101561050157600080fd5b8101908080359060200190929190505050611fbe565b60405180821515815260200191505060405180910390f35b34801561053b57600080fd5b50610544611feb565b6040518082815260200191505060405180910390f35b34801561056657600080fd5b50610776600480360360e081101561057d57600080fd5b8101908080359060200190929190803590602001906401000000008111156105a457600080fd5b8201836020820111156105b657600080fd5b803590602001918460018302840111640100000000831117156105d857600080fd5b91908080601f016020809104026020016040519081016040528093929190818152602001838380828437600081840152601f19601f8201169050808301925050505050505091929192908035906020019064010000000081111561063b57600080fd5b82018360208201111561064d57600080fd5b8035906020019184600183028401116401000000008311171561066f57600080fd5b91908080601f016020809104026020016040519081016040528093929190818152602001838380828437600081840152601f19601f820116905080830192505050505050509192919290803590602001909291908035906020019092919080359060200190929190803590602001906401000000008111156106f057600080fd5b82018360208201111561070257600080fd5b8035906020019184600183028401116401000000008311171561072457600080fd5b91908080601f016020809104026020016040519081016040528093929190818152602001838380828437600081840152601f19601f820116905080830192505050505050509192919290505050611ff1565b005b6107ba6004803603602081101561078e57600080fd5b81019080803573ffffffffffffffffffffffffffffffffffffffff169060200190929190505050612258565b005b3480156107c857600080fd5b506107d16122a2565b6040518080602001828103825283818151815260200191508051906020019060200280838360005b838110156108145780820151818401526020810190506107f9565b505050509050019250505060405180910390f35b34801561083457600080fd5b5061083d612337565b6040518080602001828103825283818151815260200191508051906020019060200280838360005b83811015610880578082015181840152602081019050610865565b505050509050019250505060405180910390f35b3480156108a057600080fd5b506108e3600480360360208110156108b757600080fd5b81019080803573ffffffffffffffffffffffffffffffffffffffff1690602001909291905050506123a1565b60405180821515815260200191505060405180910390f35b34801561090757600080fd5b506109346004803603602081101561091e57600080fd5b81019080803590602001909291905050506123fa565b604051808781526020018673ffffffffffffffffffffffffffffffffffffffff1681526020018573ffffffffffffffffffffffffffffffffffffffff16815260200184815260200183600481111561098857fe5b81526020018215158152602001965050505050505060405180910390f35b3480156109b257600080fd5b506109df600480360360208110156109c957600080fd5b8101908080359060200190929190505050612490565b005b3480156109ed57600080fd5b50610a1a60048036036020811015610a0457600080fd5b8101908080359060200190929190505050612530565b6040518088815260200180602001806020018781526020018060200186151581526020018573ffffffffffffffffffffffffffffffffffffffff16815260200184810384528a818151815260200191508051906020019080838360005b83811015610a92578082015181840152602081019050610a77565b50505050905090810190601f168015610abf5780820380516001836020036101000a031916815260200191505b50848103835289818151815260200191508051906020019080838360005b83811015610af8578082015181840152602081019050610add565b50505050905090810190601f168015610b255780820380516001836020036101000a031916815260200191505b50848103825287818151815260200191508051906020019080838360005b83811015610b5e578082015181840152602081019050610b43565b50505050905090810190601f168015610b8b5780820380516001836020036101000a031916815260200191505b509a505050505050505050505060405180910390f35b348015610bad57600080fd5b50610dbf600480360360a0811015610bc457600080fd5b81019080803573ffffffffffffffffffffffffffffffffffffffff16906020019092919080359060200190640100000000811115610c0157600080fd5b820183602082011115610c1357600080fd5b80359060200191846001830284011164010000000083111715610c3557600080fd5b91908080601f016020809104026020016040519081016040528093929190818152602001838380828437600081840152601f19601f8201169050808301925050505050505091929192908035906020019092919080359060200190640100000000811115610ca257600080fd5b820183602082011115610cb457600080fd5b80359060200191846001830284011164010000000083111715610cd657600080fd5b91908080601f016020809104026020016040519081016040528093929190818152602001838380828437600081840152601f19601f82011690508083019250505050505050919291929080359060200190640100000000811115610d3957600080fd5b820183602082011115610d4b57600080fd5b80359060200191846001830284011164010000000083111715610d6d57600080fd5b91908080601f016020809104026020016040519081016040528093929190818152602001838380828437600081840152601f19601f8201169050808301925050505050505091929192905050506127f4565b60405180821515815260200191505060405180910390f35b348015610de357600080fd5b50610e2660048036036020811015610dfa57600080fd5b81019080803573ffffffffffffffffffffffffffffffffffffffff169060200190929190505050612a49565b6040518080602001828103825283818151815260200191508051906020019060200280838360005b83811015610e69578082015181840152602081019050610e4e565b505050509050019250505060405180910390f35b348015610e8957600080fd5b50610eb660048036036020811015610ea057600080fd5b8101908080359060200190929190505050612ae0565b005b348015610ec457600080fd5b50610f0760048036036020811015610edb57600080fd5b81019080803573ffffffffffffffffffffffffffffffffffffffff169060200190929190505050612dc1565b604051808a73ffffffffffffffffffffffffffffffffffffffff168152602001806020018981526020018060200180602001806020018060200180602001881515815260200187810387528f818151815260200191508051906020019080838360005b83811015610f85578082015181840152602081019050610f6a565b50505050905090810190601f168015610fb25780820380516001836020036101000a031916815260200191505b5087810386528d818151815260200191508051906020019080838360005b83811015610feb578082015181840152602081019050610fd0565b50505050905090810190601f1680156110185780820380516001836020036101000a031916815260200191505b5087810385528c818151815260200191508051906020019080838360005b83811015611051578082015181840152602081019050611036565b50505050905090810190601f16801561107e5780820380516001836020036101000a031916815260200191505b5087810384528b818151815260200191508051906020019080838360005b838110156110b757808201518184015260208101905061109c565b50505050905090810190601f1680156110e45780820380516001836020036101000a031916815260200191505b5087810383528a818151815260200191508051906020019080838360005b8381101561111d578082015181840152602081019050611102565b50505050905090810190601f16801561114a5780820380516001836020036101000a031916815260200191505b50878103825289818151815260200191508051906020019080838360005b83811015611183578082015181840152602081019050611168565b50505050905090810190601f1680156111b05780820380516001836020036101000a031916815260200191505b509f5050505050505050505050505050505060405180910390f35b3480156111d757600080fd5b50611204600480360360208110156111ee57600080fd5b81019080803590602001909291905050506131cc565b6040518082815260200191505060405180910390f35b34801561122657600080fd5b506112536004803603602081101561123d57600080fd5b81019080803590602001909291905050506131ec565b60405180821515815260200191505060405180910390f35b34801561127757600080fd5b506112ba6004803603602081101561128e57600080fd5b81019080803573ffffffffffffffffffffffffffffffffffffffff169060200190929190505050613219565b60405180821515815260200191505060405180910390f35b3480156112de57600080fd5b50611321600480360360208110156112f557600080fd5b81019080803573ffffffffffffffffffffffffffffffffffffffff169060200190929190505050613283565b60405180821515815260200191505060405180910390f35b34801561134557600080fd5b506113726004803603602081101561135c57600080fd5b81019080803590602001909291905050506132ea565b604051808c81526020018b815260200180602001806020018a81526020018981526020018881526020018060200187151581526020018673ffffffffffffffffffffffffffffffffffffffff168152602001851515815260200184810384528d818151815260200191508051906020019080838360005b838110156114045780820151818401526020810190506113e9565b50505050905090810190601f1680156114315780820380516001836020036101000a031916815260200191505b5084810383528c818151815260200191508051906020019080838360005b8381101561146a57808201518184015260208101905061144f565b50505050905090810190601f1680156114975780820380516001836020036101000a031916815260200191505b50848103825288818151815260200191508051906020019080838360005b838110156114d05780820151818401526020810190506114b5565b50505050905090810190601f1680156114fd5780820380516001836020036101000a031916815260200191505b509e50505050505050505050505050505060405180910390f35b34801561152357600080fd5b506118da600480360360e081101561153a57600080fd5b810190808035906020019064010000000081111561155757600080fd5b82018360208201111561156957600080fd5b8035906020019184600183028401116401000000008311171561158b57600080fd5b91908080601f016020809104026020016040519081016040528093929190818152602001838380828437600081840152601f19601f82011690508083019250505050505050919291929080359060200190929190803590602001906401000000008111156115f857600080fd5b82018360208201111561160a57600080fd5b8035906020019184600183028401116401000000008311171561162c57600080fd5b91908080601f016020809104026020016040519081016040528093929190818152602001838380828437600081840152601f19601f8201169050808301925050505050505091929192908035906020019064010000000081111561168f57600080fd5b8201836020820111156116a157600080fd5b803590602001918460018302840111640100000000831117156116c357600080fd5b91908080601f016020809104026020016040519081016040528093929190818152602001838380828437600081840152601f19601f8201169050808301925050505050505091929192908035906020019064010000000081111561172657600080fd5b82018360208201111561173857600080fd5b8035906020019184600183028401116401000000008311171561175a57600080fd5b91908080601f016020809104026020016040519081016040528093929190818152602001838380828437600081840152601f19601f820116905080830192505050505050509192919290803590602001906401000000008111156117bd57600080fd5b8201836020820111156117cf57600080fd5b803590602001918460018302840111640100000000831117156117f157600080fd5b91908080601f016020809104026020016040519081016040528093929190818152602001838380828437600081840152601f19601f8201169050808301925050505050505091929192908035906020019064010000000081111561185457600080fd5b82018360208201111561186657600080fd5b8035906020019184600183028401116401000000008311171561188857600080fd5b91908080601f016020809104026020016040519081016040528093929190818152602001838380828437600081840152601f19601f820116905080830192505050505050509192919290505050613546565b005b3480156118e857600080fd5b50611915600480360360208110156118ff57600080fd5b8101908080359060200190929190505050613894565b005b34801561192357600080fd5b506119e76004803603604081101561193a57600080fd5b81019080803590602001909291908035906020019064010000000081111561196157600080fd5b82018360208201111561197357600080fd5b8035906020019184600183028401116401000000008311171561199557600080fd5b91908080601f016020809104026020016040519081016040528093929190818152602001838380828437600081840152601f19601f8201169050808301925050505050505091929192905050506138d8565b60405180821515815260200191505060405180910390f35b60025481565b6000600b60008373ffffffffffffffffffffffffffffffffffffffff1673ffffffffffffffffffffffffffffffffffffffff16815260200190815260200160002060009054906101000a900460ff1615611a625760019050611a67565b600090505b919050565b60035481565b60606011600060018152602001908152602001600020805480602002602001604051908101604052809291908181526020018280548015611ad257602002820191906000526020600020905b815481526020019060010190808311611abe575b5050505050905090565b3373ffffffffffffffffffffffffffffffffffffffff16600e600083815260200190815260200160002060010160009054906101000a900473ffffffffffffffffffffffffffffffffffffffff1673ffffffffffffffffffffffffffffffffffffffff1614611b4a57600080fd5b6002600e600083815260200190815260200160002060040160006101000a81548160ff02191690836004811115611b7d57fe5b021790555050565b6060600f60003373ffffffffffffffffffffffffffffffffffffffff1673ffffffffffffffffffffffffffffffffffffffff168152602001908152602001600020805480602002602001604051908101604052809291908181526020018280548015611c1057602002820191906000526020600020905b815481526020019060010190808311611bfc575b5050505050905090565b3373ffffffffffffffffffffffffffffffffffffffff16600e600083815260200190815260200160002060010160009054906101000a900473ffffffffffffffffffffffffffffffffffffffff1673ffffffffffffffffffffffffffffffffffffffff1614611c8857600080fd5b6001600e600083815260200190815260200160002060040160006101000a81548160ff02191690836004811115611cbb57fe5b021790555050565b611ccc33613283565b611cd557600080fd5b6001600860008373ffffffffffffffffffffffffffffffffffffffff1673ffffffffffffffffffffffffffffffffffffffff16815260200190815260200160002060080160006101000a81548160ff02191690831515021790555050565b3373ffffffffffffffffffffffffffffffffffffffff16600e600083815260200190815260200160002060020160009054906101000a900473ffffffffffffffffffffffffffffffffffffffff1673ffffffffffffffffffffffffffffffffffffffff16148015611ddd575060016004811115611dac57fe5b600e600083815260200190815260200160002060040160009054906101000a900460ff166004811115611ddb57fe5b145b611de657600080fd5b6003600e600083815260200190815260200160002060040160006101000a81548160ff02191690836004811115611e1957fe5b0217905550600d6000600e600084815260200190815260200160002060030154815260200190815260200160002060080160019054906101000a900473ffffffffffffffffffffffffffffffffffffffff1673ffffffffffffffffffffffffffffffffffffffff166108fc349081150290604051600060405180830381858888f19350505050158015611eb0573d6000803e3d6000fd5b506001600e600083815260200190815260200160002060040160016101000a81548160ff021916908315150217905550601260006001815260200190815260200160002081908060018154018082558091505060019003906000526020600020016000909190919091505550565b6060600a600060018152602001908152602001600020805480602002602001604051908101604052809291908181526020018280548015611fb457602002820191906000526020600020905b8160009054906101000a900473ffffffffffffffffffffffffffffffffffffffff1673ffffffffffffffffffffffffffffffffffffffff1681526020019060010190808311611f6a575b5050505050905090565b6000600d600083815260200190815260200160002060080160159054906101000a900460ff169050919050565b60045481565b611ffa336123a1565b61200357600080fd5b60036000815480929190600101919050555060405180610160016040528060035481526020018881526020018781526020018681526020018581526020018481526020018381526020018281526020016000151581526020013373ffffffffffffffffffffffffffffffffffffffff16815260200160001515815250600d60006003548152602001908152602001600020600082015181600001556020820151816001015560408201518160020190805190602001906120c4929190613e47565b5060608201518160030190805190602001906120e1929190613e47565b506080820151816004015560a0820151816005015560c0820151816006015560e082015181600701908051906020019061211c929190613e47565b506101008201518160080160006101000a81548160ff0219169083151502179055506101208201518160080160016101000a81548173ffffffffffffffffffffffffffffffffffffffff021916908373ffffffffffffffffffffffffffffffffffffffff1602179055506101408201518160080160156101000a81548160ff021916908315150217905550905050600c60003373ffffffffffffffffffffffffffffffffffffffff1673ffffffffffffffffffffffffffffffffffffffff16815260200190815260200160002060035490806001815401808255809150506001900390600052602060002001600090919091909150556011600060018152602001908152602001600020600354908060018154018082558091505060019003906000526020600020016000909190919091505550505050505050565b8073ffffffffffffffffffffffffffffffffffffffff166108fc349081150290604051600060405180830381858888f1935050505015801561229e573d6000803e3d6000fd5b5050565b6060601060003373ffffffffffffffffffffffffffffffffffffffff1673ffffffffffffffffffffffffffffffffffffffff16815260200190815260200160002080548060200260200160405190810160405280929190818152602001828054801561232d57602002820191906000526020600020905b815481526020019060010190808311612319575b5050505050905090565b6060601260006001815260200190815260200160002080548060200260200160405190810160405280929190818152602001828054801561239757602002820191906000526020600020905b815481526020019060010190808311612383575b5050505050905090565b6000600860008373ffffffffffffffffffffffffffffffffffffffff1673ffffffffffffffffffffffffffffffffffffffff16815260200190815260200160002060080160009054906101000a900460ff169050919050565b600e6020528060005260406000206000915090508060000154908060010160009054906101000a900473ffffffffffffffffffffffffffffffffffffffff16908060020160009054906101000a900473ffffffffffffffffffffffffffffffffffffffff16908060030154908060040160009054906101000a900460ff16908060040160019054906101000a900460ff16905086565b3373ffffffffffffffffffffffffffffffffffffffff16600d600083815260200190815260200160002060080160019054906101000a900473ffffffffffffffffffffffffffffffffffffffff1673ffffffffffffffffffffffffffffffffffffffff16146124fe57600080fd5b6001600d600083815260200190815260200160002060080160006101000a81548160ff02191690831515021790555050565b600060608060006060600080600d600089815260200190815260200160002060010154600d60008a8152602001908152602001600020600201600d60008b8152602001908152602001600020600301600d60008c815260200190815260200160002060040154600d60008d8152602001908152602001600020600701600d60008e815260200190815260200160002060080160009054906101000a900460ff16600d60008f815260200190815260200160002060080160019054906101000a900473ffffffffffffffffffffffffffffffffffffffff16858054600181600116156101000203166002900480601f01602080910402602001604051908101604052809291908181526020018280546001816001161561010002031660029004801561269c5780601f106126715761010080835404028352916020019161269c565b820191906000526020600020905b81548152906001019060200180831161267f57829003601f168201915b50505050509550848054600181600116156101000203166002900480601f0160208091040260200160405190810160405280929190818152602001828054600181600116156101000203166002900480156127385780601f1061270d57610100808354040283529160200191612738565b820191906000526020600020905b81548152906001019060200180831161271b57829003601f168201915b50505050509450828054600181600116156101000203166002900480601f0160208091040260200160405190810160405280929190818152602001828054600181600116156101000203166002900480156127d45780601f106127a9576101008083540402835291602001916127d4565b820191906000526020600020905b8154815290600101906020018083116127b757829003601f168201915b505050505092509650965096509650965096509650919395979092949650565b60003373ffffffffffffffffffffffffffffffffffffffff1660008054906101000a900473ffffffffffffffffffffffffffffffffffffffff1673ffffffffffffffffffffffffffffffffffffffff16146128525760009050612a40565b3373ffffffffffffffffffffffffffffffffffffffff1660008054906101000a900473ffffffffffffffffffffffffffffffffffffffff1673ffffffffffffffffffffffffffffffffffffffff16146128aa57600080fd5b6001600760008873ffffffffffffffffffffffffffffffffffffffff1673ffffffffffffffffffffffffffffffffffffffff16815260200190815260200160002060006101000a81548160ff0219169083151502179055506040518060c0016040528060015481526020018773ffffffffffffffffffffffffffffffffffffffff16815260200186815260200185815260200184815260200183815250600660008873ffffffffffffffffffffffffffffffffffffffff1673ffffffffffffffffffffffffffffffffffffffff1681526020019081526020016000206000820151816000015560208201518160010160006101000a81548173ffffffffffffffffffffffffffffffffffffffff021916908373ffffffffffffffffffffffffffffffffffffffff16021790555060408201518160020190805190602001906129f3929190613e47565b50606082015181600301556080820151816004019080519060200190612a1a929190613e47565b5060a0820151816005019080519060200190612a37929190613e47565b50905050600190505b95945050505050565b6060600c60008373ffffffffffffffffffffffffffffffffffffffff1673ffffffffffffffffffffffffffffffffffffffff168152602001908152602001600020805480602002602001604051908101604052809291908181526020018280548015612ad457602002820191906000526020600020905b815481526020019060010190808311612ac0575b50505050509050919050565b612ae9336123a1565b8015612afa5750612af981611fbe565b5b612b0357600080fd5b6005600081548092919060010191905055506040518060c001604052806005548152602001600d600084815260200190815260200160002060080160019054906101000a900473ffffffffffffffffffffffffffffffffffffffff1673ffffffffffffffffffffffffffffffffffffffff1681526020013373ffffffffffffffffffffffffffffffffffffffff16815260200182815260200160006004811115612ba957fe5b815260200160001515815250600e600060055481526020019081526020016000206000820151816000015560208201518160010160006101000a81548173ffffffffffffffffffffffffffffffffffffffff021916908373ffffffffffffffffffffffffffffffffffffffff16021790555060408201518160020160006101000a81548173ffffffffffffffffffffffffffffffffffffffff021916908373ffffffffffffffffffffffffffffffffffffffff1602179055506060820151816003015560808201518160040160006101000a81548160ff02191690836004811115612c9057fe5b021790555060a08201518160040160016101000a81548160ff021916908315150217905550905050600f6000600d600084815260200190815260200160002060080160019054906101000a900473ffffffffffffffffffffffffffffffffffffffff1673ffffffffffffffffffffffffffffffffffffffff1673ffffffffffffffffffffffffffffffffffffffff1681526020019081526020016000206005549080600181540180825580915050600190039060005260206000200160009091909190915055601060003373ffffffffffffffffffffffffffffffffffffffff1673ffffffffffffffffffffffffffffffffffffffff168152602001908152602001600020600554908060018154018082558091505060019003906000526020600020016000909190919091505550565b60086020528060005260406000206000915090508060000160009054906101000a900473ffffffffffffffffffffffffffffffffffffffff1690806001018054600181600116156101000203166002900480601f016020809104026020016040519081016040528092919081815260200182805460018160011615610100020316600290048015612e935780601f10612e6857610100808354040283529160200191612e93565b820191906000526020600020905b815481529060010190602001808311612e7657829003601f168201915b505050505090806002015490806003018054600181600116156101000203166002900480601f016020809104026020016040519081016040528092919081815260200182805460018160011615610100020316600290048015612f375780601f10612f0c57610100808354040283529160200191612f37565b820191906000526020600020905b815481529060010190602001808311612f1a57829003601f168201915b505050505090806004018054600181600116156101000203166002900480601f016020809104026020016040519081016040528092919081815260200182805460018160011615610100020316600290048015612fd55780601f10612faa57610100808354040283529160200191612fd5565b820191906000526020600020905b815481529060010190602001808311612fb857829003601f168201915b505050505090806005018054600181600116156101000203166002900480601f0160208091040260200160405190810160405280929190818152602001828054600181600116156101000203166002900480156130735780601f1061304857610100808354040283529160200191613073565b820191906000526020600020905b81548152906001019060200180831161305657829003601f168201915b505050505090806006018054600181600116156101000203166002900480601f0160208091040260200160405190810160405280929190818152602001828054600181600116156101000203166002900480156131115780601f106130e657610100808354040283529160200191613111565b820191906000526020600020905b8154815290600101906020018083116130f457829003601f168201915b505050505090806007018054600181600116156101000203166002900480601f0160208091040260200160405190810160405280929190818152602001828054600181600116156101000203166002900480156131af5780601f10613184576101008083540402835291602001916131af565b820191906000526020600020905b81548152906001019060200180831161319257829003601f168201915b5050505050908060080160009054906101000a900460ff16905089565b6000600d6000838152602001908152602001600020600401549050919050565b6000600e600083815260200190815260200160002060040160019054906101000a900460ff169050919050565b60008060009054906101000a900473ffffffffffffffffffffffffffffffffffffffff1673ffffffffffffffffffffffffffffffffffffffff168273ffffffffffffffffffffffffffffffffffffffff161415613279576001905061327e565b600090505b919050565b6000600760008373ffffffffffffffffffffffffffffffffffffffff1673ffffffffffffffffffffffffffffffffffffffff16815260200190815260200160002060009054906101000a900460ff16156132e057600190506132e5565b600090505b919050565b600d602052806000526040600020600091509050806000015490806001015490806002018054600181600116156101000203166002900480601f0160208091040260200160405190810160405280929190818152602001828054600181600116156101000203166002900480156133a25780601f10613377576101008083540402835291602001916133a2565b820191906000526020600020905b81548152906001019060200180831161338557829003601f168201915b505050505090806003018054600181600116156101000203166002900480601f0160208091040260200160405190810160405280929190818152602001828054600181600116156101000203166002900480156134405780601f1061341557610100808354040283529160200191613440565b820191906000526020600020905b81548152906001019060200180831161342357829003601f168201915b505050505090806004015490806005015490806006015490806007018054600181600116156101000203166002900480601f0160208091040260200160405190810160405280929190818152602001828054600181600116156101000203166002900480156134f05780601f106134c5576101008083540402835291602001916134f0565b820191906000526020600020905b8154815290600101906020018083116134d357829003601f168201915b5050505050908060080160009054906101000a900460ff16908060080160019054906101000a900473ffffffffffffffffffffffffffffffffffffffff16908060080160159054906101000a900460ff1690508b565b600b60003373ffffffffffffffffffffffffffffffffffffffff1673ffffffffffffffffffffffffffffffffffffffff16815260200190815260200160002060009054906101000a900460ff161561359d57600080fd5b6001600b60003373ffffffffffffffffffffffffffffffffffffffff1673ffffffffffffffffffffffffffffffffffffffff16815260200190815260200160002060006101000a81548160ff021916908315150217905550600260008154809291906001019190505550600a600060018152602001908152602001600020339080600181540180825580915050600190039060005260206000200160009091909190916101000a81548173ffffffffffffffffffffffffffffffffffffffff021916908373ffffffffffffffffffffffffffffffffffffffff1602179055503360096000600254815260200190815260200160002060006101000a81548173ffffffffffffffffffffffffffffffffffffffff021916908373ffffffffffffffffffffffffffffffffffffffff1602179055506040518061012001604052803373ffffffffffffffffffffffffffffffffffffffff16815260200188815260200187815260200186815260200185815260200184815260200183815260200182815260200160001515815250600860003373ffffffffffffffffffffffffffffffffffffffff1673ffffffffffffffffffffffffffffffffffffffff16815260200190815260200160002060008201518160000160006101000a81548173ffffffffffffffffffffffffffffffffffffffff021916908373ffffffffffffffffffffffffffffffffffffffff16021790555060208201518160010190805190602001906137cb929190613e47565b506040820151816002015560608201518160030190805190602001906137f2929190613e47565b50608082015181600401908051906020019061380f929190613e47565b5060a082015181600501908051906020019061382c929190613e47565b5060c0820151816006019080519060200190613849929190613e47565b5060e0820151816007019080519060200190613866929190613e47565b506101008201518160080160006101000a81548160ff02191690831515021790555090505050505050505050565b61389d33613283565b6138a657600080fd5b6001600d600083815260200190815260200160002060080160156101000a81548160ff02191690831515021790555050565b60006138e333613283565b6138ec57600080fd5b60001515600e600085815260200190815260200160002060040160019054906101000a900460ff16151514156139255760009050613e41565b6004600081548092919060010191905055506004600e600085815260200190815260200160002060040160006101000a81548160ff0219169083600481111561396a57fe5b0217905550600c6000600e600086815260200190815260200160002060020160009054906101000a900473ffffffffffffffffffffffffffffffffffffffff1673ffffffffffffffffffffffffffffffffffffffff1673ffffffffffffffffffffffffffffffffffffffff168152602001908152602001600020600e60008581526020019081526020016000206003015490806001815401808255809150506001900390600052602060002001600090919091909150556000600c6000600e600087815260200190815260200160002060010160009054906101000a900473ffffffffffffffffffffffffffffffffffffffff1673ffffffffffffffffffffffffffffffffffffffff1673ffffffffffffffffffffffffffffffffffffffff16815260200190815260200160002080549050905060005b81811015613d1357600e600086815260200190815260200160002060030154600c6000600e600089815260200190815260200160002060010160009054906101000a900473ffffffffffffffffffffffffffffffffffffffff1673ffffffffffffffffffffffffffffffffffffffff1673ffffffffffffffffffffffffffffffffffffffff1681526020019081526020016000208281548110613b4057fe5b90600052602060002001541415613d0657600c6000600e600088815260200190815260200160002060010160009054906101000a900473ffffffffffffffffffffffffffffffffffffffff1673ffffffffffffffffffffffffffffffffffffffff1673ffffffffffffffffffffffffffffffffffffffff1681526020019081526020016000206001830381548110613bd457fe5b9060005260206000200154600c6000600e600089815260200190815260200160002060010160009054906101000a900473ffffffffffffffffffffffffffffffffffffffff1673ffffffffffffffffffffffffffffffffffffffff1673ffffffffffffffffffffffffffffffffffffffff1681526020019081526020016000208281548110613c5f57fe5b9060005260206000200181905550600c6000600e600088815260200190815260200160002060010160009054906101000a900473ffffffffffffffffffffffffffffffffffffffff1673ffffffffffffffffffffffffffffffffffffffff1673ffffffffffffffffffffffffffffffffffffffff168152602001908152602001600020805480613ceb57fe5b60019003818190600052602060002001600090559055613d13565b8080600101915050613aa1565b5082600d6000600e60008881526020019081526020016000206003015481526020019081526020016000206007019080519060200190613d54929190613e47565b506000600d6000600e600088815260200190815260200160002060030154815260200190815260200160002060080160006101000a81548160ff021916908315150217905550600e600085815260200190815260200160002060020160009054906101000a900473ffffffffffffffffffffffffffffffffffffffff16600d6000600e600088815260200190815260200160002060030154815260200190815260200160002060080160016101000a81548173ffffffffffffffffffffffffffffffffffffffff021916908373ffffffffffffffffffffffffffffffffffffffff16021790555060019150505b92915050565b828054600181600116156101000203166002900490600052602060002090601f016020900481019282601f10613e8857805160ff1916838001178555613eb6565b82800160010185558215613eb6579182015b82811115613eb5578251825591602001919060010190613e9a565b5b509050613ec39190613ec7565b5090565b5b80821115613ee0576000816000905550600101613ec8565b509056fea2646970667358221220aec9dfd863829f4edf8ff3b687541f639728b9536928dc96789b8e088ce9fcd964736f6c634300060c0033",
  "source": "//pragma solidity >= 0.5.2;\r\npragma solidity ^0.6.0;\r\n\r\ncontract Land {\r\n    address contractOwner;\r\n\r\n    constructor() public{\r\n        contractOwner = msg.sender;\r\n    }\r\n\r\n    struct Landreg {\r\n        uint id;\r\n        uint area;\r\n        string city;\r\n        string state;\r\n        uint landPrice;\r\n        uint propertyPID;\r\n        uint physicalSurveyNumber;\r\n        string document;\r\n        bool isforSell;\r\n        address payable ownerAddress;\r\n        bool isLandVerified;\r\n    }\r\n\r\n    struct User{\r\n        address id;\r\n        string name;\r\n        uint age;\r\n        string city;\r\n        string aadharNumber;\r\n        string panNumber;\r\n        string document;\r\n        string email;\r\n        bool isUserVerified;\r\n    }\r\n\r\n    struct LandInspector {\r\n        uint id;\r\n        address _addr;\r\n        string name;\r\n        uint age;\r\n        string designation;\r\n        string city;\r\n    }\r\n\r\n    struct LandRequest{\r\n        uint reqId;\r\n        address payable sellerId;\r\n        address payable buyerId;\r\n        uint landId;\r\n        reqStatus requestStatus;\r\n        bool isPaymentDone;\r\n    }\r\n    enum reqStatus {requested,accepted,rejected,paymentdone,commpleted}\r\n\r\n\r\n    uint inspectorsCount;\r\n    uint public userCount;\r\n    uint public landsCount;\r\n    uint public documentId;\r\n    uint requestCount;\r\n\r\n\r\n    mapping(address => LandInspector)  InspectorMapping;\r\n    mapping(address => bool)  RegisteredInspectorMapping;\r\n    mapping(address => User) public UserMapping;\r\n    mapping(uint => address)  AllUsers;\r\n    mapping(uint => address[])  allUsersList;\r\n    mapping(address => bool)  RegisteredUserMapping;\r\n    mapping(address => uint[])  MyLands;\r\n    mapping(uint => Landreg) public lands;\r\n    mapping(uint => LandRequest) public LandRequestMapping;\r\n    mapping(address => uint[])  MyReceivedLandRequest;\r\n    mapping(address => uint[])  MySentLandRequest;\r\n    mapping(uint => uint[])  allLandList;\r\n    mapping(uint => uint[])  paymentDoneList;\r\n\r\n\r\n    function isContractOwner(address _addr) public view returns(bool){\r\n        if(_addr==contractOwner)\r\n            return true;\r\n        else\r\n            return false;\r\n    }\r\n\r\n    //-----------------------------------------------LandInspector-----------------------------------------------\r\n\r\n    function addLandInspector(address _addr,string memory _name, uint _age, string memory _designation,string memory _city) public returns(bool){\r\n        if(contractOwner!=msg.sender)\r\n            return false;\r\n        require(contractOwner==msg.sender);\r\n        RegisteredInspectorMapping[_addr]=true;\r\n        InspectorMapping[_addr] = LandInspector(inspectorsCount,_addr,_name, _age, _designation,_city);\r\n        return true;\r\n    }\r\n\r\n\r\n\r\n    function isLandInspector(address _id) public view returns (bool) {\r\n        if(RegisteredInspectorMapping[_id]){\r\n            return true;\r\n        }else{\r\n            return false;\r\n        }\r\n    }\r\n\r\n\r\n\r\n    //-----------------------------------------------User-----------------------------------------------\r\n\r\n    function isUserRegistered(address _addr) public view returns(bool)\r\n    {\r\n        if(RegisteredUserMapping[_addr]){\r\n            return true;\r\n        }else{\r\n            return false;\r\n        }\r\n    }\r\n\r\n    function registerUser(string memory _name, uint _age, string memory _city,string memory _aadharNumber, string memory _panNumber, string memory _document, string memory _email\r\n    ) public {\r\n\r\n        require(!RegisteredUserMapping[msg.sender]);\r\n\r\n        RegisteredUserMapping[msg.sender] = true;\r\n        userCount++;\r\n        allUsersList[1].push(msg.sender);\r\n        AllUsers[userCount]=msg.sender;\r\n        UserMapping[msg.sender] = User(msg.sender, _name, _age, _city,_aadharNumber,_panNumber, _document,_email,false);\r\n        //emit Registration(msg.sender);\r\n    }\r\n\r\n    function verifyUser(address _userId) public{\r\n        require(isLandInspector(msg.sender));\r\n        UserMapping[_userId].isUserVerified=true;\r\n    }\r\n    function isUserVerified(address id) public view returns(bool){\r\n        return UserMapping[id].isUserVerified;\r\n    }\r\n    function ReturnAllUserList() public view returns(address[] memory)\r\n    {\r\n        return allUsersList[1];\r\n    }\r\n\r\n\r\n    //-----------------------------------------------Land-----------------------------------------------\r\n    function addLand(uint _area, string memory _city,string memory _state, uint landPrice, uint _propertyPID,uint _surveyNum, string memory _document) public {\r\n        require(isUserVerified(msg.sender));\r\n        landsCount++;\r\n        lands[landsCount] = Landreg(landsCount, _area, _city, _state, landPrice,_propertyPID, _surveyNum , _document,false,msg.sender,false);\r\n        MyLands[msg.sender].push(landsCount);\r\n        allLandList[1].push(landsCount);\r\n        // emit AddingLand(landsCount);\r\n    }\r\n\r\n    function ReturnAllLandList() public view returns(uint[] memory)\r\n    {\r\n        return allLandList[1];\r\n    }\r\n\r\n    function verifyLand(uint _id) public{\r\n        require(isLandInspector(msg.sender));\r\n        lands[_id].isLandVerified=true;\r\n    }\r\n    function isLandVerified(uint id) public view returns(bool){\r\n        return lands[id].isLandVerified;\r\n    }\r\n\r\n    function myAllLands(address id) public view returns( uint[] memory){\r\n        return MyLands[id];\r\n    }\r\n    function landInfo(uint id) public view returns(uint,string memory,string memory,uint,string memory,bool,address) {\r\n        return (lands[id].area,lands[id].city,lands[id].state,lands[id].landPrice,lands[id].document,lands[id].isforSell,lands[id].ownerAddress);\r\n    }\r\n\r\n    function makeItforSell(uint id) public{\r\n        require(lands[id].ownerAddress==msg.sender);\r\n        lands[id].isforSell=true;\r\n    }\r\n\r\n    function requestforBuy(uint _landId) public\r\n    {\r\n        require(isUserVerified(msg.sender) && isLandVerified(_landId));\r\n        requestCount++;\r\n        LandRequestMapping[requestCount]=LandRequest(requestCount,lands[_landId].ownerAddress,msg.sender,_landId,reqStatus.requested,false);\r\n        MyReceivedLandRequest[lands[_landId].ownerAddress].push(requestCount);\r\n        MySentLandRequest[msg.sender].push(requestCount);\r\n    }\r\n\r\n    function myReceivedLandRequests() public view returns(uint[] memory)\r\n    {\r\n        return MyReceivedLandRequest[msg.sender];\r\n    }\r\n    function mySentLandRequests() public view returns(uint[] memory)\r\n    {\r\n        return MySentLandRequest[msg.sender];\r\n    }\r\n    function acceptRequest(uint _requestId) public\r\n    {\r\n        require(LandRequestMapping[_requestId].sellerId==msg.sender);\r\n        LandRequestMapping[_requestId].requestStatus=reqStatus.accepted;\r\n    }\r\n    function rejectRequest(uint _requestId) public\r\n    {\r\n        require(LandRequestMapping[_requestId].sellerId==msg.sender);\r\n        LandRequestMapping[_requestId].requestStatus=reqStatus.rejected;\r\n    }\r\n\r\n    function requesteStatus(uint id) public view returns(bool)\r\n    {\r\n        return LandRequestMapping[id].isPaymentDone;\r\n    }\r\n\r\n    function landPrice(uint id) public view returns(uint)\r\n    {\r\n        return lands[id].landPrice;\r\n    }\r\n    function makePayment(uint _requestId) public payable\r\n    {\r\n        require(LandRequestMapping[_requestId].buyerId==msg.sender && LandRequestMapping[_requestId].requestStatus==reqStatus.accepted);\r\n\r\n        LandRequestMapping[_requestId].requestStatus=reqStatus.paymentdone;\r\n        //LandRequestMapping[_requestId].sellerId.transfer(lands[LandRequestMapping[_requestId].landId].landPrice);\r\n        //lands[LandRequestMapping[_requestId].landId].ownerAddress.transfer(lands[LandRequestMapping[_requestId].landId].landPrice);\r\n        lands[LandRequestMapping[_requestId].landId].ownerAddress.transfer(msg.value);\r\n        LandRequestMapping[_requestId].isPaymentDone=true;\r\n        paymentDoneList[1].push(_requestId);\r\n    }\r\n\r\n    function returnPaymentDoneList() public view returns(uint[] memory)\r\n    {\r\n        return paymentDoneList[1];\r\n    }\r\n\r\n    function transferOwnership(uint _requestId,string memory documentUrl) public returns(bool)\r\n    {\r\n        require(isLandInspector(msg.sender));\r\n        if(LandRequestMapping[_requestId].isPaymentDone==false)\r\n            return false;\r\n        documentId++;\r\n        LandRequestMapping[_requestId].requestStatus=reqStatus.commpleted;\r\n        MyLands[LandRequestMapping[_requestId].buyerId].push(LandRequestMapping[_requestId].landId);\r\n\r\n        uint len=MyLands[LandRequestMapping[_requestId].sellerId].length;\r\n        for(uint i=0;i<len;i++)\r\n        {\r\n            if(MyLands[LandRequestMapping[_requestId].sellerId][i]==LandRequestMapping[_requestId].landId)\r\n            {\r\n                MyLands[LandRequestMapping[_requestId].sellerId][i]=MyLands[LandRequestMapping[_requestId].sellerId][len-1];\r\n                //MyLands[LandRequestMapping[_requestId].sellerId].length--;\r\n                MyLands[LandRequestMapping[_requestId].sellerId].pop();\r\n                break;\r\n            }\r\n        }\r\n        lands[LandRequestMapping[_requestId].landId].document=documentUrl;\r\n        lands[LandRequestMapping[_requestId].landId].isforSell=false;\r\n        lands[LandRequestMapping[_requestId].landId].ownerAddress=LandRequestMapping[_requestId].buyerId;\r\n        return true;\r\n    }\r\n    function makePaymentTestFun(address payable _reveiver) public payable\r\n    {\r\n        _reveiver.transfer(msg.value);\r\n    }\r\n}",
  "sourcePath": "C:\\Users\\shree\\Documents\\Land Registration Flutter\\land_registration\\contracts\\landContrat.sol",
  "compiler": {
    "name": "solc",
    "version": "0.6.12+commit.27d51765.Emscripten.clang"
  },
  "schemaVersion": "3.0.23",
  "updatedAt": "2021-12-31T09:41:24.980Z",
  "networkType": "ethereum",
  "devdoc": {
    "kind": "dev",
    "methods": {},
    "version": 1
  },
  "userdoc": {
    "kind": "user",
    "methods": {},
    "version": 1
  }
}